{
  "abi": [
    {
      "inputs": [
        {
          "internalType": "uint256",
          "name": "_requiredApprovals",
          "type": "uint256"
        }
      ],
      "stateMutability": "nonpayable",
      "type": "constructor"
    },
    {
      "anonymous": false,
      "inputs": [
        {
          "indexed": false,
          "internalType": "address",
          "name": "_oldAdmin",
          "type": "address"
        }
      ],
      "name": "AdminRemoved",
      "type": "event"
    },
    {
      "anonymous": false,
      "inputs": [
        {
          "indexed": false,
          "internalType": "uint256",
          "name": "_requestID",
          "type": "uint256"
        },
        {
          "indexed": false,
          "internalType": "uint256",
          "name": "_amount",
          "type": "uint256"
        }
      ],
      "name": "AllApproved",
      "type": "event"
    },
    {
      "anonymous": false,
      "inputs": [
        {
          "indexed": false,
          "internalType": "address",
          "name": "_person",
          "type": "address"
        }
      ],
      "name": "FamilyMemberAdded",
      "type": "event"
    },
    {
      "anonymous": false,
      "inputs": [
        {
          "indexed": false,
          "internalType": "address",
          "name": "_person",
          "type": "address"
        }
      ],
      "name": "FamilyMemberRemoved",
      "type": "event"
    },
    {
      "anonymous": false,
      "inputs": [
        {
          "indexed": false,
          "internalType": "address",
          "name": "_newAdmin",
          "type": "address"
        }
      ],
      "name": "NewAdminAdded",
      "type": "event"
    },
    {
      "anonymous": false,
      "inputs": [
        {
          "indexed": true,
          "internalType": "address",
          "name": "_person",
          "type": "address"
        }
      ],
      "name": "OutsiderAddedFunds",
      "type": "event"
    },
    {
      "anonymous": false,
      "inputs": [
        {
          "indexed": false,
          "internalType": "uint256",
          "name": "_newApprovalNumber",
          "type": "uint256"
        }
      ],
      "name": "RequiredApprovalsChanged",
      "type": "event"
    },
    {
      "anonymous": false,
      "inputs": [
        {
          "indexed": false,
          "internalType": "address",
          "name": "_person",
          "type": "address"
        },
        {
          "indexed": false,
          "internalType": "uint256",
          "name": "_amount",
          "type": "uint256"
        }
      ],
      "name": "ReservesWithdrawalMade",
      "type": "event"
    },
    {
      "anonymous": false,
      "inputs": [
        {
          "indexed": false,
          "internalType": "uint256",
          "name": "_requestID",
          "type": "uint256"
        },
        {
          "indexed": false,
          "internalType": "uint256",
          "name": "_amount",
          "type": "uint256"
        },
        {
          "indexed": false,
          "internalType": "address",
          "name": "_person",
          "type": "address"
        },
        {
          "indexed": false,
          "internalType": "string",
          "name": "_reason",
          "type": "string"
        }
      ],
      "name": "ReservesWithdrawalRequested",
      "type": "event"
    },
    {
      "anonymous": false,
      "inputs": [
        {
          "indexed": false,
          "internalType": "address",
          "name": "_familyMember",
          "type": "address"
        }
      ],
      "name": "SavingsAdded",
      "type": "event"
    },
    {
      "anonymous": false,
      "inputs": [
        {
          "indexed": false,
          "internalType": "address",
          "name": "_person",
          "type": "address"
        },
        {
          "indexed": false,
          "internalType": "uint256",
          "name": "_amount",
          "type": "uint256"
        }
      ],
      "name": "WithdrawalMade",
      "type": "event"
    },
    {
      "anonymous": false,
      "inputs": [
        {
          "indexed": false,
          "internalType": "uint256",
          "name": "_requestID",
          "type": "uint256"
        },
        {
          "indexed": false,
          "internalType": "uint256",
          "name": "_amount",
          "type": "uint256"
        },
        {
          "indexed": false,
          "internalType": "address",
          "name": "_person",
          "type": "address"
        },
        {
          "indexed": false,
          "internalType": "string",
          "name": "_reason",
          "type": "string"
        }
      ],
      "name": "WithdrawalRequested",
      "type": "event"
    },
    {
      "inputs": [],
      "name": "AAVE_V3_POOL",
      "outputs": [
        {
          "internalType": "contract IPool",
          "name": "",
          "type": "address"
        }
      ],
      "stateMutability": "view",
      "type": "function"
    },
    {
      "inputs": [],
      "name": "WETH_ATOKEN",
      "outputs": [
        {
          "internalType": "contract IERC20",
          "name": "",
          "type": "address"
        }
      ],
      "stateMutability": "view",
      "type": "function"
    },
    {
      "inputs": [],
      "name": "WETH_GATEWAY",
      "outputs": [
        {
          "internalType": "contract IWETHGateway",
          "name": "",
          "type": "address"
        }
      ],
      "stateMutability": "view",
      "type": "function"
    },
    {
      "inputs": [
        {
          "internalType": "address",
          "name": "_newAdmin",
          "type": "address"
        }
      ],
      "name": "addAdmin",
      "outputs": [],
      "stateMutability": "nonpayable",
      "type": "function"
    },
    {
      "inputs": [
        {
          "internalType": "address",
          "name": "_person",
          "type": "address"
        }
      ],
      "name": "addFamilyMember",
      "outputs": [],
      "stateMutability": "nonpayable",
      "type": "function"
    },
    {
      "inputs": [],
      "name": "admin",
      "outputs": [
        {
          "internalType": "address payable",
          "name": "",
          "type": "address"
        }
      ],
      "stateMutability": "view",
      "type": "function"
    },
    {
      "inputs": [
        {
          "internalType": "uint256",
          "name": "_requestID",
          "type": "uint256"
        }
      ],
      "name": "approveRequest",
      "outputs": [],
      "stateMutability": "nonpayable",
      "type": "function"
    },
    {
      "inputs": [
        {
          "internalType": "uint256",
          "name": "_newApprovalNum",
          "type": "uint256"
        }
      ],
      "name": "changeRequiredApprovals",
      "outputs": [],
      "stateMutability": "nonpayable",
      "type": "function"
    },
    {
      "inputs": [
        {
          "internalType": "address",
          "name": "",
          "type": "address"
        }
      ],
      "name": "depositedAmount",
      "outputs": [
        {
          "internalType": "uint256",
          "name": "",
          "type": "uint256"
        }
      ],
      "stateMutability": "view",
      "type": "function"
    },
    {
      "inputs": [],
      "name": "easySaveETH",
      "outputs": [],
      "stateMutability": "payable",
      "type": "function"
    },
    {
      "inputs": [
        {
          "internalType": "uint256",
          "name": "_requestID",
          "type": "uint256"
        }
      ],
      "name": "executeReserveWithdrawal",
      "outputs": [],
      "stateMutability": "payable",
      "type": "function"
    },
    {
      "inputs": [
        {
          "internalType": "address",
          "name": "",
          "type": "address"
        },
        {
          "internalType": "uint256",
          "name": "",
          "type": "uint256"
        }
      ],
      "name": "hasVotedOnRequestID",
      "outputs": [
        {
          "internalType": "bool",
          "name": "",
          "type": "bool"
        }
      ],
      "stateMutability": "view",
      "type": "function"
    },
    {
      "inputs": [
        {
          "internalType": "uint256",
          "name": "",
          "type": "uint256"
        }
      ],
      "name": "nicePeople",
      "outputs": [
        {
          "internalType": "address",
          "name": "",
          "type": "address"
        }
      ],
      "stateMutability": "view",
      "type": "function"
    },
    {
      "inputs": [],
      "name": "numOfAdmins",
      "outputs": [
        {
          "internalType": "uint256",
          "name": "",
          "type": "uint256"
        }
      ],
      "stateMutability": "view",
      "type": "function"
    },
    {
      "inputs": [],
      "name": "numOfFamilyMembers",
      "outputs": [
        {
          "internalType": "uint256",
          "name": "",
          "type": "uint256"
        }
      ],
      "stateMutability": "view",
      "type": "function"
    },
    {
      "inputs": [
        {
          "internalType": "address",
          "name": "_admin",
          "type": "address"
        }
      ],
      "name": "removeAdmin",
      "outputs": [],
      "stateMutability": "nonpayable",
      "type": "function"
    },
    {
      "inputs": [
        {
          "internalType": "address",
          "name": "_person",
          "type": "address"
        }
      ],
      "name": "removeFamilyMember",
      "outputs": [],
      "stateMutability": "nonpayable",
      "type": "function"
    },
    {
      "inputs": [],
      "name": "requestID",
      "outputs": [
        {
          "internalType": "uint256",
          "name": "",
          "type": "uint256"
        }
      ],
      "stateMutability": "view",
      "type": "function"
    },
    {
      "inputs": [
        {
          "internalType": "uint256",
          "name": "",
          "type": "uint256"
        }
      ],
      "name": "requestIDToAmount",
      "outputs": [
        {
          "internalType": "uint256",
          "name": "",
          "type": "uint256"
        }
      ],
      "stateMutability": "view",
      "type": "function"
    },
    {
      "inputs": [
        {
          "internalType": "uint256",
          "name": "",
          "type": "uint256"
        }
      ],
      "name": "requestIDToApprovals",
      "outputs": [
        {
          "internalType": "uint256",
          "name": "",
          "type": "uint256"
        }
      ],
      "stateMutability": "view",
      "type": "function"
    },
    {
      "inputs": [
        {
          "internalType": "uint256",
          "name": "",
          "type": "uint256"
        }
      ],
      "name": "requestIDToRequester",
      "outputs": [
        {
          "internalType": "address",
          "name": "",
          "type": "address"
        }
      ],
      "stateMutability": "view",
      "type": "function"
    },
    {
      "inputs": [
        {
          "internalType": "string",
          "name": "_reason",
          "type": "string"
        }
      ],
      "name": "requestToWithdrawReserves",
      "outputs": [
        {
          "internalType": "uint256",
          "name": "",
          "type": "uint256"
        }
      ],
      "stateMutability": "nonpayable",
      "type": "function"
    },
    {
      "inputs": [
        {
          "internalType": "uint256",
          "name": "_amount",
          "type": "uint256"
        },
        {
          "internalType": "string",
          "name": "_reason",
          "type": "string"
        }
      ],
      "name": "requestWithdrawal",
      "outputs": [
        {
          "internalType": "uint256",
          "name": "",
          "type": "uint256"
        }
      ],
      "stateMutability": "nonpayable",
      "type": "function"
    },
    {
      "inputs": [],
      "name": "requiredApprovals",
      "outputs": [
        {
          "internalType": "uint256",
          "name": "",
          "type": "uint256"
        }
      ],
      "stateMutability": "view",
      "type": "function"
    },
    {
      "inputs": [],
      "name": "reserveETH",
      "outputs": [
        {
          "internalType": "uint256",
          "name": "",
          "type": "uint256"
        }
      ],
      "stateMutability": "view",
      "type": "function"
    },
    {
      "inputs": [
        {
          "internalType": "uint256",
          "name": "_requestID",
          "type": "uint256"
        }
      ],
      "name": "revokeRequest",
      "outputs": [],
      "stateMutability": "nonpayable",
      "type": "function"
    },
    {
      "inputs": [],
      "name": "viewFamilyHoldings",
      "outputs": [
        {
          "internalType": "uint256",
          "name": "",
          "type": "uint256"
        }
      ],
      "stateMutability": "view",
      "type": "function"
    },
    {
      "inputs": [],
      "name": "withdrawEverything",
      "outputs": [],
      "stateMutability": "payable",
      "type": "function"
    },
    {
      "inputs": [
        {
          "internalType": "uint256",
          "name": "_requestID",
          "type": "uint256"
        }
      ],
      "name": "withdrawSavedETH",
      "outputs": [],
      "stateMutability": "payable",
      "type": "function"
    },
    {
      "stateMutability": "payable",
      "type": "receive"
    }
  ],
  "bytecode": "608060405234801561001057600080fd5b50604051611b5a380380611b5a83398101604081905261002f91610080565b600080546001600160a01b0319163390811782558152600160208181526040808420805460ff199081168517909155600a849055600290925290922080549092168117909155600b55600955610099565b60006020828403121561009257600080fd5b5051919050565b611ab2806100a86000396000f3fe6080604052600436106101c65760003560e01c80635b246dcb116100f7578063ae5a98ba11610095578063d82da78111610064578063d82da7811461052f578063e5b50f9c1461054f578063e7d915cf1461056f578063f851a4401461058f57600080fd5b8063ae5a98ba146104bf578063ba2d5168146104e7578063d1e191a414610507578063d7d1bbdb1461050f57600080fd5b80638f779201116100d15780638f7792011461044657806399c1aadc1461045c5780639b96c683146104725780639e59a8621461049257600080fd5b80635b246dcb146103e85780636fc7c5d2146103f0578063704802751461042657600080fd5b806324674fb5116101645780633b3037051161013e5780633b3037051461036857806343951a69146103905780634a4643f7146103a657806356d8c9b1146103d357600080fd5b806324674fb5146102db578063308d8f871461031b5780633940856d1461033b57600080fd5b8063100af203116101a0578063100af203146102475780631785f53c1461025d5780631c38c6421461027d5780631cd850701461029057600080fd5b80630191dc92146101e95780630342da8a14610212578063051a80231461023457600080fd5b366101e45734600c60008282546101dd9190611773565b9091555050005b600080fd5b3480156101f557600080fd5b506101ff600a5481565b6040519081526020015b60405180910390f35b34801561021e57600080fd5b5061023261022d3660046117a7565b6105af565b005b6102326102423660046117c9565b6106c2565b34801561025357600080fd5b506101ff600c5481565b34801561026957600080fd5b506102326102783660046117a7565b6108c2565b61023261028b3660046117c9565b610a38565b34801561029c57600080fd5b506102cb6102ab3660046117e2565b600760209081526000928352604080842090915290825290205460ff1681565b6040519015158152602001610209565b3480156102e757600080fd5b506103037327b4692c93959048833f40702b22fe3578e7775981565b6040516001600160a01b039091168152602001610209565b34801561032757600080fd5b506102326103363660046117a7565b610b79565b34801561034757600080fd5b506101ff6103563660046117c9565b60056020526000908152604090205481565b34801561037457600080fd5b5061030373368eedf3f56ad10b9bc57eed4dac65b26bb667f681565b34801561039c57600080fd5b506101ff600b5481565b3480156103b257600080fd5b506101ff6103c13660046117a7565b60036020526000908152604090205481565b3480156103df57600080fd5b506101ff610c80565b610232610d27565b3480156103fc57600080fd5b5061030361040b3660046117c9565b6006602052600090815260409020546001600160a01b031681565b34801561043257600080fd5b506102326104413660046117a7565b610e8f565b34801561045257600080fd5b506101ff60085481565b34801561046857600080fd5b506101ff60095481565b34801561047e57600080fd5b5061023261048d3660046117c9565b610f8c565b34801561049e57600080fd5b506101ff6104ad3660046117c9565b60046020526000908152604090205481565b3480156104cb57600080fd5b5061030373d5b55d3ed89fda19124ceb5bab620328287b915d81565b3480156104f357600080fd5b506101ff610502366004611855565b61105d565b6102326111fc565b34801561051b57600080fd5b5061023261052a3660046117c9565b6113f2565b34801561053b57600080fd5b5061030361054a3660046117c9565b611549565b34801561055b57600080fd5b506101ff61056a3660046118a1565b611573565b34801561057b57600080fd5b5061023261058a3660046117c9565b611687565b34801561059b57600080fd5b50600054610303906001600160a01b031681565b3360009081526002602052604090205460ff166105e75760405162461bcd60e51b81526004016105de906118e3565b60405180910390fd5b6001600160a01b03811660009081526002602052604090205460ff1661064f5760405162461bcd60e51b815260206004820152601f60248201527f41646472657373206973206e6f7420612066616d696c79206d656d6265722e0060448201526064016105de565b6001600160a01b0381166000908152600260205260408120805460ff19169055600b80549161067d83611912565b90915550506040516001600160a01b03821681527ff0140425f23efb51cff46d50328a62e518085f5f025c1b0d7d12674abbbec876906020015b60405180910390a150565b3360009081526002602052604090205460ff166106f15760405162461bcd60e51b81526004016105de90611929565b60095460008281526005602052604090205410156107215760405162461bcd60e51b81526004016105de9061196c565b6000818152600460209081526040808320543384526003909252822080549192839261074e9084906119c0565b909155505060405163095ea7b360e01b815273d5b55d3ed89fda19124ceb5bab620328287b915d6004820152602481018290527327b4692c93959048833f40702b22fe3578e777599063095ea7b3906044016020604051808303816000875af11580156107bf573d6000803e3d6000fd5b505050506040513d601f19601f820116820180604052508101906107e391906119d7565b5060008281526006602052604090819020549051630402806960e51b815273368eedf3f56ad10b9bc57eed4dac65b26bb667f66004820152602481018390526001600160a01b03909116604482015273d5b55d3ed89fda19124ceb5bab620328287b915d906380500d2090606401600060405180830381600087803b15801561086b57600080fd5b505af115801561087f573d6000803e3d6000fd5b505060408051338152602081018590527fbc158bb64f05d6383aea69bbb0b20c1bbf4b7a18f63359c5649b7c39e29d388493500190505b60405180910390a15050565b3360009081526002602052604090205460ff166108f15760405162461bcd60e51b81526004016105de906118e3565b6001600160a01b03811660009081526001602052604090205460ff1661096a5760405162461bcd60e51b815260206004820152602860248201527f4164647265737320746f2072656d6f7665206d75737420626520616e2061646d6044820152671a5b88199a5c9cdd60c21b60648201526084016105de565b6002600a5410156109cc5760405162461bcd60e51b815260206004820152602660248201527f5468657265206d75737420616c77617973206265206174206c6561737420312060448201526530b236b4b71760d11b60648201526084016105de565b6001600160a01b0381166000908152600160205260408120805460ff19169055600a8054916109fa83611912565b90915550506040516001600160a01b03821681527fa3b62bc36326052d97ea62d63c3d60308ed4c3ea8ac079dd8499f1e9c4f80c0f906020016106b7565b3360009081526002602052604090205460ff16610a675760405162461bcd60e51b81526004016105de90611929565b6009546000828152600560205260409020541015610a975760405162461bcd60e51b81526004016105de9061196c565b6000818152600660205260409020546001600160a01b03163314610aee5760405162461bcd60e51b815260206004820152600e60248201526d20b1b1b2b9b9903232b734b2b21760911b60448201526064016105de565b600081815260046020526040812054600c805491928392610b109084906119c0565b9091555050604051339082156108fc029083906000818181858888f19350505050158015610b42573d6000803e3d6000fd5b5060408051338152602081018390527fa93e87e9b92fd055e5e08581b4c6ec31da2e13e298631f5303459c2817e8121191016108b6565b3360009081526002602052604090205460ff16610ba85760405162461bcd60e51b81526004016105de906118e3565b6001600160a01b03811660009081526002602052604090205460ff1615610c115760405162461bcd60e51b815260206004820152601860248201527f416c726561647920612066616d696c79206d656d6265722e000000000000000060448201526064016105de565b6001600160a01b0381166000908152600260205260408120805460ff19166001179055600b805491610c42836119f9565b90915550506040516001600160a01b03821681527fc4d13138c7c464391b9d0604186a092fc9d8069764bdc2c4451a586271185926906020016106b7565b3360009081526002602052604081205460ff16610caf5760405162461bcd60e51b81526004016105de90611929565b6040516370a0823160e01b81523060048201527327b4692c93959048833f40702b22fe3578e77759906370a0823190602401602060405180830381865afa158015610cfe573d6000803e3d6000fd5b505050506040513d601f19601f82011682018060405250810190610d229190611a14565b905090565b60405163474cf53d60e01b815273368eedf3f56ad10b9bc57eed4dac65b26bb667f660048201523060248201526000604482015273d5b55d3ed89fda19124ceb5bab620328287b915d9063474cf53d9034906064016000604051808303818588803b158015610d9557600080fd5b505af1158015610da9573d6000803e3d6000fd5b5050336000908152600360209081526040808320349055600290915290205460ff16159250610e09915050576040513381527f4ba5945533f5059cdcdb8fb4ecd150741b32b3c2063637a97925adad2b99d9f89060200160405180910390a15b3360009081526002602052604090205460ff16610e8d57600d805460018101825560009182527fd7b6990105719101dabeb77144f2a3385c8033acd3af97e9423a695e81ad1eb50180546001600160a01b0319163390811790915560405190917f1aa8cf33b494bcc2174b90c149be08f0fecac18b142440665908c0abd816cd8391a25b565b3360009081526002602052604090205460ff16610ebe5760405162461bcd60e51b81526004016105de906118e3565b6001600160a01b03811660009081526001602052604090205460ff1615610f1b5760405162461bcd60e51b815260206004820152601160248201527020b63932b0b23c9030b71030b236b4b71760791b60448201526064016105de565b6001600160a01b03811660009081526001602081905260408220805460ff19169091179055600a805491610f4e836119f9565b90915550506040516001600160a01b03821681527f2dbe9fb88463d989acccabbb6ee06901f83672eb78e04a11ff48dd8f69a27cda906020016106b7565b3360009081526002602052604090205460ff16610fbb5760405162461bcd60e51b81526004016105de906118e3565b600181116110285760405162461bcd60e51b815260206004820152603460248201527f5265717569726564206e756d626572206f6620617070726f76616c73206d75736044820152733a1031329033b932b0ba32b9103a3430b710189760611b60648201526084016105de565b60098190556040518181527f07b3040e2c9a6aceb2a8c327189a13773af5cac508876d95a03d06d888ba4363906020016106b7565b3360009081526002602052604081205460ff1661108c5760405162461bcd60e51b81526004016105de90611929565b6040516370a0823160e01b81523060048201526000907327b4692c93959048833f40702b22fe3578e77759906370a0823190602401602060405180830381865afa1580156110de573d6000803e3d6000fd5b505050506040513d601f19601f820116820180604052508101906111029190611a14565b90508085106111535760405162461bcd60e51b815260206004820152601f60248201527f52656475636520796f7572207769746864726177616c20726571756573742e0060448201526064016105de565b6001600860008282546111669190611773565b909155505060088054600090815260046020908152604080832089905583548352600582528083208390558354835260069091529081902080546001600160a01b03191633908117909155915490517f1d8fc30285830cf912779b6bcf6412013383dd71e787dfa573a17c7860069ffd926111e8929189919089908990611a2d565b60405180910390a150506008549392505050565b3360009081526002602052604090205460ff1661122b5760405162461bcd60e51b81526004016105de906118e3565b6040516370a0823160e01b81523060048201526000907327b4692c93959048833f40702b22fe3578e77759906370a0823190602401602060405180830381865afa15801561127d573d6000803e3d6000fd5b505050506040513d601f19601f820116820180604052508101906112a19190611a14565b60405163095ea7b360e01b815273d5b55d3ed89fda19124ceb5bab620328287b915d6004820152602481018290529091507327b4692c93959048833f40702b22fe3578e777599063095ea7b3906044016020604051808303816000875af1158015611310573d6000803e3d6000fd5b505050506040513d601f19601f8201168201806040525081019061133491906119d7565b50604051630402806960e51b815273368eedf3f56ad10b9bc57eed4dac65b26bb667f66004820152600019602482015233604482015273d5b55d3ed89fda19124ceb5bab620328287b915d906380500d2090606401600060405180830381600087803b1580156113a357600080fd5b505af11580156113b7573d6000803e3d6000fd5b505060408051338152602081018590527fbc158bb64f05d6383aea69bbb0b20c1bbf4b7a18f63359c5649b7c39e29d388493500190506106b7565b3360009081526002602052604090205460ff166114215760405162461bcd60e51b81526004016105de90611929565b6000818152600660205260409020546001600160a01b03163314156114945760405162461bcd60e51b8152602060048201526024808201527f596f752063616e6e6f7420617070726f766520796f7572206f776e207265717560448201526332b9ba1760e11b60648201526084016105de565b60008181526005602052604081208054600192906114b3908490611773565b90915550503360009081526007602090815260408083208484529091529020805460ff19166001908117909155600b546114ed91906119c0565b600082815260056020526040902054141561154657600081815260046020908152604091829020548251848152918201527f9fd195f23ba42bac4b641d098dd3c8ac2743bf8f412fe6b25f18239f8c50797791016106b7565b50565b600d818154811061155957600080fd5b6000918252602090912001546001600160a01b0316905081565b3360009081526002602052604081205460ff166115a25760405162461bcd60e51b81526004016105de90611929565b47806115df5760405162461bcd60e51b815260206004820152600c60248201526b2737903932b9b2b93b32b99760a11b60448201526064016105de565b6001600860008282546115f29190611773565b909155505060088054600090815260046020908152604080832085905583548352600582528083208390558354835260069091529081902080546001600160a01b03191633908117909155915490517fea6bf89d95bd06a82ba1b04a10044a726bbe4e92e16c5bba14299cba3c28812092611674929185919089908990611a2d565b60405180910390a1505060085492915050565b3360009081526002602052604090205460ff166116b65760405162461bcd60e51b81526004016105de90611929565b33600090815260076020908152604080832084845290915290205460ff166117365760405162461bcd60e51b815260206004820152602d60248201527f43616e6e6f74207265766f6b65207768617420796f752068617665206e6f742060448201526c3cb2ba1030b8383937bb32b21760991b60648201526084016105de565b60008181526005602052604081208054600192906117559084906119c0565b909155505050565b634e487b7160e01b600052601160045260246000fd5b600082198211156117865761178661175d565b500190565b80356001600160a01b03811681146117a257600080fd5b919050565b6000602082840312156117b957600080fd5b6117c28261178b565b9392505050565b6000602082840312156117db57600080fd5b5035919050565b600080604083850312156117f557600080fd5b6117fe8361178b565b946020939093013593505050565b60008083601f84011261181e57600080fd5b50813567ffffffffffffffff81111561183657600080fd5b60208301915083602082850101111561184e57600080fd5b9250929050565b60008060006040848603121561186a57600080fd5b83359250602084013567ffffffffffffffff81111561188857600080fd5b6118948682870161180c565b9497909650939450505050565b600080602083850312156118b457600080fd5b823567ffffffffffffffff8111156118cb57600080fd5b6118d78582860161180c565b90969095509350505050565b6020808252601590820152742cb7ba9030b932903737ba1030b71030b236b4b71760591b604082015260600190565b6000816119215761192161175d565b506000190190565b60208082526023908201527f596f7520617265206e6f742061206d656d626572206f66207468652066616d69604082015262363c9760e91b606082015260800190565b60208082526034908201527f4d6f726520617070726f76616c7320617265207265717569726564206265666f6040820152733932903cb7ba9031b0b7103bb4ba34323930bb9760611b606082015260800190565b6000828210156119d2576119d261175d565b500390565b6000602082840312156119e957600080fd5b815180151581146117c257600080fd5b6000600019821415611a0d57611a0d61175d565b5060010190565b600060208284031215611a2657600080fd5b5051919050565b858152602081018590526001600160a01b03841660408201526080606082018190528101829052818360a0830137600081830160a090810191909152601f909201601f1916010194935050505056fea264697066735822122007ac35b6fc3117d37fb19fab3ef0c54bd49047a8186593fe5bc9b38867df377364736f6c634300080c0033",
  "bytecodeSha1": "841da565c85b9fc3a9318780fbb8d16e30c98bfd",
  "compiler": {
    "evm_version": "istanbul",
    "optimizer": {
      "enabled": true,
      "runs": 200
    },
    "version": "0.8.12+commit.f00d7308"
  },
  "contractName": "EthSavings",
  "language": "Solidity",
  "natspec": {
    "author": "Okiki Olugunna",
    "details": "This contract is intended for the Goerli Testnet.",
    "kind": "dev",
    "methods": {
      "AAVE_V3_POOL()": {
        "notice": "This is the contract address of the Aave V3 Pool on Goerli"
      },
      "WETH_ATOKEN()": {
        "notice": "This is the contract address of the WETH 'a' token on Aave V3 (Goerli)"
      },
      "WETH_GATEWAY()": {
        "notice": "This is the contract address of the WETH Gateway on Goerli"
      },
      "addAdmin(address)": {
        "details": "To add this admin to family, also call the addFamilyMember function",
        "notice": "This function allows the admin to add another adminThis new admin will *not* automatically be family",
        "params": {
          "_newAdmin": "The address of the new admin to be added"
        }
      },
      "addFamilyMember(address)": {
        "notice": "This function allows the admin to add a family member this contract",
        "params": {
          "_person": "The address to add to the family"
        }
      },
      "admin()": {
        "notice": "This is the admin of the contract"
      },
      "approveRequest(uint256)": {
        "notice": "This function is for family members to approve a withdrawal submissionIf you try to approve your own request, this function will revert",
        "params": {
          "_requestID": "The requestID to approve"
        }
      },
      "changeRequiredApprovals(uint256)": {
        "notice": "This function allows the admin to change the required number of approvals for a withdrawal request to go through",
        "params": {
          "_newApprovalNum": "The new number of required approvals for a request to go through"
        }
      },
      "constructor": {
        "details": "constructor",
        "params": {
          "_requiredApprovals": "The number to initialise as the required approvals for a withdrawal request to go through"
        }
      },
      "depositedAmount(address)": {
        "notice": "This mapping stores what people have deposited"
      },
      "easySaveETH()": {
        "notice": "This function allows family members & outsider to deposit ETH into this savings"
      },
      "executeReserveWithdrawal(uint256)": {
        "notice": "This function allows family members to execute the withdrawal from the reserves once the request has reached the required number of approvals",
        "params": {
          "_requestID": "The requestID of the withdrawal request"
        }
      },
      "hasVotedOnRequestID(address,uint256)": {
        "notice": "This mapping stores whether an address has voted on a requestID"
      },
      "nicePeople(uint256)": {
        "notice": "This array keeps track of non-family members who added to the savings"
      },
      "numOfAdmins()": {
        "notice": "This variable keeps track of the number of admins"
      },
      "numOfFamilyMembers()": {
        "notice": "This variable keeps track of the number of family members"
      },
      "removeAdmin(address)": {
        "notice": "This function allows an admin to remove an adminIf the admin being removed is also a family member, this function will not change their familial status",
        "params": {
          "_admin": "The address of the admin to remove"
        }
      },
      "removeFamilyMember(address)": {
        "notice": "This function allows the admin to remove a family member from the contract",
        "params": {
          "_person": "The address to remove from the family"
        }
      },
      "requestID()": {
        "notice": "This is the current request ID"
      },
      "requestIDToAmount(uint256)": {
        "notice": "Ths mapping stores the withdrawal requestID & links it to the amount the individual wants to withdraw"
      },
      "requestIDToApprovals(uint256)": {
        "notice": "This mapping counts the approvals that have been made for a requestID"
      },
      "requestIDToRequester(uint256)": {
        "notice": "This mapping links the requestID to the address who made the request"
      },
      "requestToWithdrawReserves(string)": {
        "details": "'reserves' is the ETH sitting directly in the contract",
        "notice": "This function allows family members to request a withdrawal from the reserves",
        "params": {
          "_reason": "The reason for the withdrawal from the reserves"
        },
        "returns": {
          "_0": "requestID The requestID for the withdrawal request"
        }
      },
      "requestWithdrawal(uint256,string)": {
        "notice": "This function is for a family member to request a withdrawal",
        "params": {
          "_amount": "The amount to withdraw from Aave",
          "_reason": "The reason for the withdrawal"
        },
        "returns": {
          "_0": "requestID The requestID for this withdrawal request"
        }
      },
      "requiredApprovals()": {
        "notice": "This is the required number of approvals for a request to go through"
      },
      "reserveETH()": {
        "notice": "This variable keeps track of the 'reserve ETH' in the contract"
      },
      "revokeRequest(uint256)": {
        "notice": "This function allows family members to revoke a withdrawal request they have already approvedYou cannot call this function if you have not yet approved the request",
        "params": {
          "_requestID": "The requestID to revoke your approval of"
        }
      },
      "viewFamilyHoldings()": {
        "notice": "This function is for family members to view the current savings amount in Aave",
        "returns": {
          "_0": "uint256 The value returned is the 'aWETH' holdings"
        }
      },
      "withdrawEverything()": {
        "details": "Only the admin(s) can call this",
        "notice": "This function allows the admin to withdraw all savings from AaveThis function will not withdraw the ETH in the reserves"
      },
      "withdrawSavedETH(uint256)": {
        "notice": "This function allows family members to execute their requestID withdrawal of savings from Aave after the required number approvals has been reachedAnother family member can call this function for you, but the funds will still go to the initial requester's account",
        "params": {
          "_requestID": "The requestID for the withdrawal request"
        }
      }
    },
    "notice": "This contract is intended to be used as a multisig savings account with your family This same contract can be use for generations and generations, effectively maintaing your family's wealth as long as the individuals are added to the family addresses.This contract can also be extended to other use cases where you want to save funds as a group & want to implement multi-sig functionality for withdrawals.",
    "stateVariables": {
      "WETH_ATOKEN": {
        "details": "The ETH sent to Aave V3 via the WETH Gateway accrues interest in the form of 'aWETH'"
      },
      "WETH_GATEWAY": {
        "details": "This is where the ETH sent to the easySaveETH() function goes through to get to the Pool"
      },
      "admin": {
        "details": "The admin is the deployer of the contract"
      },
      "requestID": {
        "details": "This value gets incremented each time someone makes a request"
      },
      "reserveETH": {
        "details": "'reserveETH' is merely the ETH held directly in the contract & not developing interest in Aave"
      }
    },
    "title": "DeFi Multi-Sig Savings Account",
    "version": 1
  },
  "opcodes": "PUSH1 0x80 PUSH1 0x40 MSTORE PUSH1 0x4 CALLDATASIZE LT PUSH2 0x1C6 JUMPI PUSH1 0x0 CALLDATALOAD PUSH1 0xE0 SHR DUP1 PUSH4 0x5B246DCB GT PUSH2 0xF7 JUMPI DUP1 PUSH4 0xAE5A98BA GT PUSH2 0x95 JUMPI DUP1 PUSH4 0xD82DA781 GT PUSH2 0x64 JUMPI DUP1 PUSH4 0xD82DA781 EQ PUSH2 0x52F JUMPI DUP1 PUSH4 0xE5B50F9C EQ PUSH2 0x54F JUMPI DUP1 PUSH4 0xE7D915CF EQ PUSH2 0x56F JUMPI DUP1 PUSH4 0xF851A440 EQ PUSH2 0x58F JUMPI PUSH1 0x0 DUP1 REVERT JUMPDEST DUP1 PUSH4 0xAE5A98BA EQ PUSH2 0x4BF JUMPI DUP1 PUSH4 0xBA2D5168 EQ PUSH2 0x4E7 JUMPI DUP1 PUSH4 0xD1E191A4 EQ PUSH2 0x507 JUMPI DUP1 PUSH4 0xD7D1BBDB EQ PUSH2 0x50F JUMPI PUSH1 0x0 DUP1 REVERT JUMPDEST DUP1 PUSH4 0x8F779201 GT PUSH2 0xD1 JUMPI DUP1 PUSH4 0x8F779201 EQ PUSH2 0x446 JUMPI DUP1 PUSH4 0x99C1AADC EQ PUSH2 0x45C JUMPI DUP1 PUSH4 0x9B96C683 EQ PUSH2 0x472 JUMPI DUP1 PUSH4 0x9E59A862 EQ PUSH2 0x492 JUMPI PUSH1 0x0 DUP1 REVERT JUMPDEST DUP1 PUSH4 0x5B246DCB EQ PUSH2 0x3E8 JUMPI DUP1 PUSH4 0x6FC7C5D2 EQ PUSH2 0x3F0 JUMPI DUP1 PUSH4 0x70480275 EQ PUSH2 0x426 JUMPI PUSH1 0x0 DUP1 REVERT JUMPDEST DUP1 PUSH4 0x24674FB5 GT PUSH2 0x164 JUMPI DUP1 PUSH4 0x3B303705 GT PUSH2 0x13E JUMPI DUP1 PUSH4 0x3B303705 EQ PUSH2 0x368 JUMPI DUP1 PUSH4 0x43951A69 EQ PUSH2 0x390 JUMPI DUP1 PUSH4 0x4A4643F7 EQ PUSH2 0x3A6 JUMPI DUP1 PUSH4 0x56D8C9B1 EQ PUSH2 0x3D3 JUMPI PUSH1 0x0 DUP1 REVERT JUMPDEST DUP1 PUSH4 0x24674FB5 EQ PUSH2 0x2DB JUMPI DUP1 PUSH4 0x308D8F87 EQ PUSH2 0x31B JUMPI DUP1 PUSH4 0x3940856D EQ PUSH2 0x33B JUMPI PUSH1 0x0 DUP1 REVERT JUMPDEST DUP1 PUSH4 0x100AF203 GT PUSH2 0x1A0 JUMPI DUP1 PUSH4 0x100AF203 EQ PUSH2 0x247 JUMPI DUP1 PUSH4 0x1785F53C EQ PUSH2 0x25D JUMPI DUP1 PUSH4 0x1C38C642 EQ PUSH2 0x27D JUMPI DUP1 PUSH4 0x1CD85070 EQ PUSH2 0x290 JUMPI PUSH1 0x0 DUP1 REVERT JUMPDEST DUP1 PUSH4 0x191DC92 EQ PUSH2 0x1E9 JUMPI DUP1 PUSH4 0x342DA8A EQ PUSH2 0x212 JUMPI DUP1 PUSH4 0x51A8023 EQ PUSH2 0x234 JUMPI PUSH1 0x0 DUP1 REVERT JUMPDEST CALLDATASIZE PUSH2 0x1E4 JUMPI CALLVALUE PUSH1 0xC PUSH1 0x0 DUP3 DUP3 SLOAD PUSH2 0x1DD SWAP2 SWAP1 PUSH2 0x1773 JUMP JUMPDEST SWAP1 SWAP2 SSTORE POP POP STOP JUMPDEST PUSH1 0x0 DUP1 REVERT JUMPDEST CALLVALUE DUP1 ISZERO PUSH2 0x1F5 JUMPI PUSH1 0x0 DUP1 REVERT JUMPDEST POP PUSH2 0x1FF PUSH1 0xA SLOAD DUP2 JUMP JUMPDEST PUSH1 0x40 MLOAD SWAP1 DUP2 MSTORE PUSH1 0x20 ADD JUMPDEST PUSH1 0x40 MLOAD DUP1 SWAP2 SUB SWAP1 RETURN JUMPDEST CALLVALUE DUP1 ISZERO PUSH2 0x21E JUMPI PUSH1 0x0 DUP1 REVERT JUMPDEST POP PUSH2 0x232 PUSH2 0x22D CALLDATASIZE PUSH1 0x4 PUSH2 0x17A7 JUMP JUMPDEST PUSH2 0x5AF JUMP JUMPDEST STOP JUMPDEST PUSH2 0x232 PUSH2 0x242 CALLDATASIZE PUSH1 0x4 PUSH2 0x17C9 JUMP JUMPDEST PUSH2 0x6C2 JUMP JUMPDEST CALLVALUE DUP1 ISZERO PUSH2 0x253 JUMPI PUSH1 0x0 DUP1 REVERT JUMPDEST POP PUSH2 0x1FF PUSH1 0xC SLOAD DUP2 JUMP JUMPDEST CALLVALUE DUP1 ISZERO PUSH2 0x269 JUMPI PUSH1 0x0 DUP1 REVERT JUMPDEST POP PUSH2 0x232 PUSH2 0x278 CALLDATASIZE PUSH1 0x4 PUSH2 0x17A7 JUMP JUMPDEST PUSH2 0x8C2 JUMP JUMPDEST PUSH2 0x232 PUSH2 0x28B CALLDATASIZE PUSH1 0x4 PUSH2 0x17C9 JUMP JUMPDEST PUSH2 0xA38 JUMP JUMPDEST CALLVALUE DUP1 ISZERO PUSH2 0x29C JUMPI PUSH1 0x0 DUP1 REVERT JUMPDEST POP PUSH2 0x2CB PUSH2 0x2AB CALLDATASIZE PUSH1 0x4 PUSH2 0x17E2 JUMP JUMPDEST PUSH1 0x7 PUSH1 0x20 SWAP1 DUP2 MSTORE PUSH1 0x0 SWAP3 DUP4 MSTORE PUSH1 0x40 DUP1 DUP5 KECCAK256 SWAP1 SWAP2 MSTORE SWAP1 DUP3 MSTORE SWAP1 KECCAK256 SLOAD PUSH1 0xFF AND DUP2 JUMP JUMPDEST PUSH1 0x40 MLOAD SWAP1 ISZERO ISZERO DUP2 MSTORE PUSH1 0x20 ADD PUSH2 0x209 JUMP JUMPDEST CALLVALUE DUP1 ISZERO PUSH2 0x2E7 JUMPI PUSH1 0x0 DUP1 REVERT JUMPDEST POP PUSH2 0x303 PUSH20 0x27B4692C93959048833F40702B22FE3578E77759 DUP2 JUMP JUMPDEST PUSH1 0x40 MLOAD PUSH1 0x1 PUSH1 0x1 PUSH1 0xA0 SHL SUB SWAP1 SWAP2 AND DUP2 MSTORE PUSH1 0x20 ADD PUSH2 0x209 JUMP JUMPDEST CALLVALUE DUP1 ISZERO PUSH2 0x327 JUMPI PUSH1 0x0 DUP1 REVERT JUMPDEST POP PUSH2 0x232 PUSH2 0x336 CALLDATASIZE PUSH1 0x4 PUSH2 0x17A7 JUMP JUMPDEST PUSH2 0xB79 JUMP JUMPDEST CALLVALUE DUP1 ISZERO PUSH2 0x347 JUMPI PUSH1 0x0 DUP1 REVERT JUMPDEST POP PUSH2 0x1FF PUSH2 0x356 CALLDATASIZE PUSH1 0x4 PUSH2 0x17C9 JUMP JUMPDEST PUSH1 0x5 PUSH1 0x20 MSTORE PUSH1 0x0 SWAP1 DUP2 MSTORE PUSH1 0x40 SWAP1 KECCAK256 SLOAD DUP2 JUMP JUMPDEST CALLVALUE DUP1 ISZERO PUSH2 0x374 JUMPI PUSH1 0x0 DUP1 REVERT JUMPDEST POP PUSH2 0x303 PUSH20 0x368EEDF3F56AD10B9BC57EED4DAC65B26BB667F6 DUP2 JUMP JUMPDEST CALLVALUE DUP1 ISZERO PUSH2 0x39C JUMPI PUSH1 0x0 DUP1 REVERT JUMPDEST POP PUSH2 0x1FF PUSH1 0xB SLOAD DUP2 JUMP JUMPDEST CALLVALUE DUP1 ISZERO PUSH2 0x3B2 JUMPI PUSH1 0x0 DUP1 REVERT JUMPDEST POP PUSH2 0x1FF PUSH2 0x3C1 CALLDATASIZE PUSH1 0x4 PUSH2 0x17A7 JUMP JUMPDEST PUSH1 0x3 PUSH1 0x20 MSTORE PUSH1 0x0 SWAP1 DUP2 MSTORE PUSH1 0x40 SWAP1 KECCAK256 SLOAD DUP2 JUMP JUMPDEST CALLVALUE DUP1 ISZERO PUSH2 0x3DF JUMPI PUSH1 0x0 DUP1 REVERT JUMPDEST POP PUSH2 0x1FF PUSH2 0xC80 JUMP JUMPDEST PUSH2 0x232 PUSH2 0xD27 JUMP JUMPDEST CALLVALUE DUP1 ISZERO PUSH2 0x3FC JUMPI PUSH1 0x0 DUP1 REVERT JUMPDEST POP PUSH2 0x303 PUSH2 0x40B CALLDATASIZE PUSH1 0x4 PUSH2 0x17C9 JUMP JUMPDEST PUSH1 0x6 PUSH1 0x20 MSTORE PUSH1 0x0 SWAP1 DUP2 MSTORE PUSH1 0x40 SWAP1 KECCAK256 SLOAD PUSH1 0x1 PUSH1 0x1 PUSH1 0xA0 SHL SUB AND DUP2 JUMP JUMPDEST CALLVALUE DUP1 ISZERO PUSH2 0x432 JUMPI PUSH1 0x0 DUP1 REVERT JUMPDEST POP PUSH2 0x232 PUSH2 0x441 CALLDATASIZE PUSH1 0x4 PUSH2 0x17A7 JUMP JUMPDEST PUSH2 0xE8F JUMP JUMPDEST CALLVALUE DUP1 ISZERO PUSH2 0x452 JUMPI PUSH1 0x0 DUP1 REVERT JUMPDEST POP PUSH2 0x1FF PUSH1 0x8 SLOAD DUP2 JUMP JUMPDEST CALLVALUE DUP1 ISZERO PUSH2 0x468 JUMPI PUSH1 0x0 DUP1 REVERT JUMPDEST POP PUSH2 0x1FF PUSH1 0x9 SLOAD DUP2 JUMP JUMPDEST CALLVALUE DUP1 ISZERO PUSH2 0x47E JUMPI PUSH1 0x0 DUP1 REVERT JUMPDEST POP PUSH2 0x232 PUSH2 0x48D CALLDATASIZE PUSH1 0x4 PUSH2 0x17C9 JUMP JUMPDEST PUSH2 0xF8C JUMP JUMPDEST CALLVALUE DUP1 ISZERO PUSH2 0x49E JUMPI PUSH1 0x0 DUP1 REVERT JUMPDEST POP PUSH2 0x1FF PUSH2 0x4AD CALLDATASIZE PUSH1 0x4 PUSH2 0x17C9 JUMP JUMPDEST PUSH1 0x4 PUSH1 0x20 MSTORE PUSH1 0x0 SWAP1 DUP2 MSTORE PUSH1 0x40 SWAP1 KECCAK256 SLOAD DUP2 JUMP JUMPDEST CALLVALUE DUP1 ISZERO PUSH2 0x4CB JUMPI PUSH1 0x0 DUP1 REVERT JUMPDEST POP PUSH2 0x303 PUSH20 0xD5B55D3ED89FDA19124CEB5BAB620328287B915D DUP2 JUMP JUMPDEST CALLVALUE DUP1 ISZERO PUSH2 0x4F3 JUMPI PUSH1 0x0 DUP1 REVERT JUMPDEST POP PUSH2 0x1FF PUSH2 0x502 CALLDATASIZE PUSH1 0x4 PUSH2 0x1855 JUMP JUMPDEST PUSH2 0x105D JUMP JUMPDEST PUSH2 0x232 PUSH2 0x11FC JUMP JUMPDEST CALLVALUE DUP1 ISZERO PUSH2 0x51B JUMPI PUSH1 0x0 DUP1 REVERT JUMPDEST POP PUSH2 0x232 PUSH2 0x52A CALLDATASIZE PUSH1 0x4 PUSH2 0x17C9 JUMP JUMPDEST PUSH2 0x13F2 JUMP JUMPDEST CALLVALUE DUP1 ISZERO PUSH2 0x53B JUMPI PUSH1 0x0 DUP1 REVERT JUMPDEST POP PUSH2 0x303 PUSH2 0x54A CALLDATASIZE PUSH1 0x4 PUSH2 0x17C9 JUMP JUMPDEST PUSH2 0x1549 JUMP JUMPDEST CALLVALUE DUP1 ISZERO PUSH2 0x55B JUMPI PUSH1 0x0 DUP1 REVERT JUMPDEST POP PUSH2 0x1FF PUSH2 0x56A CALLDATASIZE PUSH1 0x4 PUSH2 0x18A1 JUMP JUMPDEST PUSH2 0x1573 JUMP JUMPDEST CALLVALUE DUP1 ISZERO PUSH2 0x57B JUMPI PUSH1 0x0 DUP1 REVERT JUMPDEST POP PUSH2 0x232 PUSH2 0x58A CALLDATASIZE PUSH1 0x4 PUSH2 0x17C9 JUMP JUMPDEST PUSH2 0x1687 JUMP JUMPDEST CALLVALUE DUP1 ISZERO PUSH2 0x59B JUMPI PUSH1 0x0 DUP1 REVERT JUMPDEST POP PUSH1 0x0 SLOAD PUSH2 0x303 SWAP1 PUSH1 0x1 PUSH1 0x1 PUSH1 0xA0 SHL SUB AND DUP2 JUMP JUMPDEST CALLER PUSH1 0x0 SWAP1 DUP2 MSTORE PUSH1 0x2 PUSH1 0x20 MSTORE PUSH1 0x40 SWAP1 KECCAK256 SLOAD PUSH1 0xFF AND PUSH2 0x5E7 JUMPI PUSH1 0x40 MLOAD PUSH3 0x461BCD PUSH1 0xE5 SHL DUP2 MSTORE PUSH1 0x4 ADD PUSH2 0x5DE SWAP1 PUSH2 0x18E3 JUMP JUMPDEST PUSH1 0x40 MLOAD DUP1 SWAP2 SUB SWAP1 REVERT JUMPDEST PUSH1 0x1 PUSH1 0x1 PUSH1 0xA0 SHL SUB DUP2 AND PUSH1 0x0 SWAP1 DUP2 MSTORE PUSH1 0x2 PUSH1 0x20 MSTORE PUSH1 0x40 SWAP1 KECCAK256 SLOAD PUSH1 0xFF AND PUSH2 0x64F JUMPI PUSH1 0x40 MLOAD PUSH3 0x461BCD PUSH1 0xE5 SHL DUP2 MSTORE PUSH1 0x20 PUSH1 0x4 DUP3 ADD MSTORE PUSH1 0x1F PUSH1 0x24 DUP3 ADD MSTORE PUSH32 0x41646472657373206973206E6F7420612066616D696C79206D656D6265722E00 PUSH1 0x44 DUP3 ADD MSTORE PUSH1 0x64 ADD PUSH2 0x5DE JUMP JUMPDEST PUSH1 0x1 PUSH1 0x1 PUSH1 0xA0 SHL SUB DUP2 AND PUSH1 0x0 SWAP1 DUP2 MSTORE PUSH1 0x2 PUSH1 0x20 MSTORE PUSH1 0x40 DUP2 KECCAK256 DUP1 SLOAD PUSH1 0xFF NOT AND SWAP1 SSTORE PUSH1 0xB DUP1 SLOAD SWAP2 PUSH2 0x67D DUP4 PUSH2 0x1912 JUMP JUMPDEST SWAP1 SWAP2 SSTORE POP POP PUSH1 0x40 MLOAD PUSH1 0x1 PUSH1 0x1 PUSH1 0xA0 SHL SUB DUP3 AND DUP2 MSTORE PUSH32 0xF0140425F23EFB51CFF46D50328A62E518085F5F025C1B0D7D12674ABBBEC876 SWAP1 PUSH1 0x20 ADD JUMPDEST PUSH1 0x40 MLOAD DUP1 SWAP2 SUB SWAP1 LOG1 POP JUMP JUMPDEST CALLER PUSH1 0x0 SWAP1 DUP2 MSTORE PUSH1 0x2 PUSH1 0x20 MSTORE PUSH1 0x40 SWAP1 KECCAK256 SLOAD PUSH1 0xFF AND PUSH2 0x6F1 JUMPI PUSH1 0x40 MLOAD PUSH3 0x461BCD PUSH1 0xE5 SHL DUP2 MSTORE PUSH1 0x4 ADD PUSH2 0x5DE SWAP1 PUSH2 0x1929 JUMP JUMPDEST PUSH1 0x9 SLOAD PUSH1 0x0 DUP3 DUP2 MSTORE PUSH1 0x5 PUSH1 0x20 MSTORE PUSH1 0x40 SWAP1 KECCAK256 SLOAD LT ISZERO PUSH2 0x721 JUMPI PUSH1 0x40 MLOAD PUSH3 0x461BCD PUSH1 0xE5 SHL DUP2 MSTORE PUSH1 0x4 ADD PUSH2 0x5DE SWAP1 PUSH2 0x196C JUMP JUMPDEST PUSH1 0x0 DUP2 DUP2 MSTORE PUSH1 0x4 PUSH1 0x20 SWAP1 DUP2 MSTORE PUSH1 0x40 DUP1 DUP4 KECCAK256 SLOAD CALLER DUP5 MSTORE PUSH1 0x3 SWAP1 SWAP3 MSTORE DUP3 KECCAK256 DUP1 SLOAD SWAP2 SWAP3 DUP4 SWAP3 PUSH2 0x74E SWAP1 DUP5 SWAP1 PUSH2 0x19C0 JUMP JUMPDEST SWAP1 SWAP2 SSTORE POP POP PUSH1 0x40 MLOAD PUSH4 0x95EA7B3 PUSH1 0xE0 SHL DUP2 MSTORE PUSH20 0xD5B55D3ED89FDA19124CEB5BAB620328287B915D PUSH1 0x4 DUP3 ADD MSTORE PUSH1 0x24 DUP2 ADD DUP3 SWAP1 MSTORE PUSH20 0x27B4692C93959048833F40702B22FE3578E77759 SWAP1 PUSH4 0x95EA7B3 SWAP1 PUSH1 0x44 ADD PUSH1 0x20 PUSH1 0x40 MLOAD DUP1 DUP4 SUB DUP2 PUSH1 0x0 DUP8 GAS CALL ISZERO DUP1 ISZERO PUSH2 0x7BF JUMPI RETURNDATASIZE PUSH1 0x0 DUP1 RETURNDATACOPY RETURNDATASIZE PUSH1 0x0 REVERT JUMPDEST POP POP POP POP PUSH1 0x40 MLOAD RETURNDATASIZE PUSH1 0x1F NOT PUSH1 0x1F DUP3 ADD AND DUP3 ADD DUP1 PUSH1 0x40 MSTORE POP DUP2 ADD SWAP1 PUSH2 0x7E3 SWAP2 SWAP1 PUSH2 0x19D7 JUMP JUMPDEST POP PUSH1 0x0 DUP3 DUP2 MSTORE PUSH1 0x6 PUSH1 0x20 MSTORE PUSH1 0x40 SWAP1 DUP2 SWAP1 KECCAK256 SLOAD SWAP1 MLOAD PUSH4 0x4028069 PUSH1 0xE5 SHL DUP2 MSTORE PUSH20 0x368EEDF3F56AD10B9BC57EED4DAC65B26BB667F6 PUSH1 0x4 DUP3 ADD MSTORE PUSH1 0x24 DUP2 ADD DUP4 SWAP1 MSTORE PUSH1 0x1 PUSH1 0x1 PUSH1 0xA0 SHL SUB SWAP1 SWAP2 AND PUSH1 0x44 DUP3 ADD MSTORE PUSH20 0xD5B55D3ED89FDA19124CEB5BAB620328287B915D SWAP1 PUSH4 0x80500D20 SWAP1 PUSH1 0x64 ADD PUSH1 0x0 PUSH1 0x40 MLOAD DUP1 DUP4 SUB DUP2 PUSH1 0x0 DUP8 DUP1 EXTCODESIZE ISZERO DUP1 ISZERO PUSH2 0x86B JUMPI PUSH1 0x0 DUP1 REVERT JUMPDEST POP GAS CALL ISZERO DUP1 ISZERO PUSH2 0x87F JUMPI RETURNDATASIZE PUSH1 0x0 DUP1 RETURNDATACOPY RETURNDATASIZE PUSH1 0x0 REVERT JUMPDEST POP POP PUSH1 0x40 DUP1 MLOAD CALLER DUP2 MSTORE PUSH1 0x20 DUP2 ADD DUP6 SWAP1 MSTORE PUSH32 0xBC158BB64F05D6383AEA69BBB0B20C1BBF4B7A18F63359C5649B7C39E29D3884 SWAP4 POP ADD SWAP1 POP JUMPDEST PUSH1 0x40 MLOAD DUP1 SWAP2 SUB SWAP1 LOG1 POP POP JUMP JUMPDEST CALLER PUSH1 0x0 SWAP1 DUP2 MSTORE PUSH1 0x2 PUSH1 0x20 MSTORE PUSH1 0x40 SWAP1 KECCAK256 SLOAD PUSH1 0xFF AND PUSH2 0x8F1 JUMPI PUSH1 0x40 MLOAD PUSH3 0x461BCD PUSH1 0xE5 SHL DUP2 MSTORE PUSH1 0x4 ADD PUSH2 0x5DE SWAP1 PUSH2 0x18E3 JUMP JUMPDEST PUSH1 0x1 PUSH1 0x1 PUSH1 0xA0 SHL SUB DUP2 AND PUSH1 0x0 SWAP1 DUP2 MSTORE PUSH1 0x1 PUSH1 0x20 MSTORE PUSH1 0x40 SWAP1 KECCAK256 SLOAD PUSH1 0xFF AND PUSH2 0x96A JUMPI PUSH1 0x40 MLOAD PUSH3 0x461BCD PUSH1 0xE5 SHL DUP2 MSTORE PUSH1 0x20 PUSH1 0x4 DUP3 ADD MSTORE PUSH1 0x28 PUSH1 0x24 DUP3 ADD MSTORE PUSH32 0x4164647265737320746F2072656D6F7665206D75737420626520616E2061646D PUSH1 0x44 DUP3 ADD MSTORE PUSH8 0x1A5B88199A5C9CDD PUSH1 0xC2 SHL PUSH1 0x64 DUP3 ADD MSTORE PUSH1 0x84 ADD PUSH2 0x5DE JUMP JUMPDEST PUSH1 0x2 PUSH1 0xA SLOAD LT ISZERO PUSH2 0x9CC JUMPI PUSH1 0x40 MLOAD PUSH3 0x461BCD PUSH1 0xE5 SHL DUP2 MSTORE PUSH1 0x20 PUSH1 0x4 DUP3 ADD MSTORE PUSH1 0x26 PUSH1 0x24 DUP3 ADD MSTORE PUSH32 0x5468657265206D75737420616C77617973206265206174206C65617374203120 PUSH1 0x44 DUP3 ADD MSTORE PUSH6 0x30B236B4B717 PUSH1 0xD1 SHL PUSH1 0x64 DUP3 ADD MSTORE PUSH1 0x84 ADD PUSH2 0x5DE JUMP JUMPDEST PUSH1 0x1 PUSH1 0x1 PUSH1 0xA0 SHL SUB DUP2 AND PUSH1 0x0 SWAP1 DUP2 MSTORE PUSH1 0x1 PUSH1 0x20 MSTORE PUSH1 0x40 DUP2 KECCAK256 DUP1 SLOAD PUSH1 0xFF NOT AND SWAP1 SSTORE PUSH1 0xA DUP1 SLOAD SWAP2 PUSH2 0x9FA DUP4 PUSH2 0x1912 JUMP JUMPDEST SWAP1 SWAP2 SSTORE POP POP PUSH1 0x40 MLOAD PUSH1 0x1 PUSH1 0x1 PUSH1 0xA0 SHL SUB DUP3 AND DUP2 MSTORE PUSH32 0xA3B62BC36326052D97EA62D63C3D60308ED4C3EA8AC079DD8499F1E9C4F80C0F SWAP1 PUSH1 0x20 ADD PUSH2 0x6B7 JUMP JUMPDEST CALLER PUSH1 0x0 SWAP1 DUP2 MSTORE PUSH1 0x2 PUSH1 0x20 MSTORE PUSH1 0x40 SWAP1 KECCAK256 SLOAD PUSH1 0xFF AND PUSH2 0xA67 JUMPI PUSH1 0x40 MLOAD PUSH3 0x461BCD PUSH1 0xE5 SHL DUP2 MSTORE PUSH1 0x4 ADD PUSH2 0x5DE SWAP1 PUSH2 0x1929 JUMP JUMPDEST PUSH1 0x9 SLOAD PUSH1 0x0 DUP3 DUP2 MSTORE PUSH1 0x5 PUSH1 0x20 MSTORE PUSH1 0x40 SWAP1 KECCAK256 SLOAD LT ISZERO PUSH2 0xA97 JUMPI PUSH1 0x40 MLOAD PUSH3 0x461BCD PUSH1 0xE5 SHL DUP2 MSTORE PUSH1 0x4 ADD PUSH2 0x5DE SWAP1 PUSH2 0x196C JUMP JUMPDEST PUSH1 0x0 DUP2 DUP2 MSTORE PUSH1 0x6 PUSH1 0x20 MSTORE PUSH1 0x40 SWAP1 KECCAK256 SLOAD PUSH1 0x1 PUSH1 0x1 PUSH1 0xA0 SHL SUB AND CALLER EQ PUSH2 0xAEE JUMPI PUSH1 0x40 MLOAD PUSH3 0x461BCD PUSH1 0xE5 SHL DUP2 MSTORE PUSH1 0x20 PUSH1 0x4 DUP3 ADD MSTORE PUSH1 0xE PUSH1 0x24 DUP3 ADD MSTORE PUSH14 0x20B1B1B2B9B9903232B734B2B217 PUSH1 0x91 SHL PUSH1 0x44 DUP3 ADD MSTORE PUSH1 0x64 ADD PUSH2 0x5DE JUMP JUMPDEST PUSH1 0x0 DUP2 DUP2 MSTORE PUSH1 0x4 PUSH1 0x20 MSTORE PUSH1 0x40 DUP2 KECCAK256 SLOAD PUSH1 0xC DUP1 SLOAD SWAP2 SWAP3 DUP4 SWAP3 PUSH2 0xB10 SWAP1 DUP5 SWAP1 PUSH2 0x19C0 JUMP JUMPDEST SWAP1 SWAP2 SSTORE POP POP PUSH1 0x40 MLOAD CALLER SWAP1 DUP3 ISZERO PUSH2 0x8FC MUL SWAP1 DUP4 SWAP1 PUSH1 0x0 DUP2 DUP2 DUP2 DUP6 DUP9 DUP9 CALL SWAP4 POP POP POP POP ISZERO DUP1 ISZERO PUSH2 0xB42 JUMPI RETURNDATASIZE PUSH1 0x0 DUP1 RETURNDATACOPY RETURNDATASIZE PUSH1 0x0 REVERT JUMPDEST POP PUSH1 0x40 DUP1 MLOAD CALLER DUP2 MSTORE PUSH1 0x20 DUP2 ADD DUP4 SWAP1 MSTORE PUSH32 0xA93E87E9B92FD055E5E08581B4C6EC31DA2E13E298631F5303459C2817E81211 SWAP2 ADD PUSH2 0x8B6 JUMP JUMPDEST CALLER PUSH1 0x0 SWAP1 DUP2 MSTORE PUSH1 0x2 PUSH1 0x20 MSTORE PUSH1 0x40 SWAP1 KECCAK256 SLOAD PUSH1 0xFF AND PUSH2 0xBA8 JUMPI PUSH1 0x40 MLOAD PUSH3 0x461BCD PUSH1 0xE5 SHL DUP2 MSTORE PUSH1 0x4 ADD PUSH2 0x5DE SWAP1 PUSH2 0x18E3 JUMP JUMPDEST PUSH1 0x1 PUSH1 0x1 PUSH1 0xA0 SHL SUB DUP2 AND PUSH1 0x0 SWAP1 DUP2 MSTORE PUSH1 0x2 PUSH1 0x20 MSTORE PUSH1 0x40 SWAP1 KECCAK256 SLOAD PUSH1 0xFF AND ISZERO PUSH2 0xC11 JUMPI PUSH1 0x40 MLOAD PUSH3 0x461BCD PUSH1 0xE5 SHL DUP2 MSTORE PUSH1 0x20 PUSH1 0x4 DUP3 ADD MSTORE PUSH1 0x18 PUSH1 0x24 DUP3 ADD MSTORE PUSH32 0x416C726561647920612066616D696C79206D656D6265722E0000000000000000 PUSH1 0x44 DUP3 ADD MSTORE PUSH1 0x64 ADD PUSH2 0x5DE JUMP JUMPDEST PUSH1 0x1 PUSH1 0x1 PUSH1 0xA0 SHL SUB DUP2 AND PUSH1 0x0 SWAP1 DUP2 MSTORE PUSH1 0x2 PUSH1 0x20 MSTORE PUSH1 0x40 DUP2 KECCAK256 DUP1 SLOAD PUSH1 0xFF NOT AND PUSH1 0x1 OR SWAP1 SSTORE PUSH1 0xB DUP1 SLOAD SWAP2 PUSH2 0xC42 DUP4 PUSH2 0x19F9 JUMP JUMPDEST SWAP1 SWAP2 SSTORE POP POP PUSH1 0x40 MLOAD PUSH1 0x1 PUSH1 0x1 PUSH1 0xA0 SHL SUB DUP3 AND DUP2 MSTORE PUSH32 0xC4D13138C7C464391B9D0604186A092FC9D8069764BDC2C4451A586271185926 SWAP1 PUSH1 0x20 ADD PUSH2 0x6B7 JUMP JUMPDEST CALLER PUSH1 0x0 SWAP1 DUP2 MSTORE PUSH1 0x2 PUSH1 0x20 MSTORE PUSH1 0x40 DUP2 KECCAK256 SLOAD PUSH1 0xFF AND PUSH2 0xCAF JUMPI PUSH1 0x40 MLOAD PUSH3 0x461BCD PUSH1 0xE5 SHL DUP2 MSTORE PUSH1 0x4 ADD PUSH2 0x5DE SWAP1 PUSH2 0x1929 JUMP JUMPDEST PUSH1 0x40 MLOAD PUSH4 0x70A08231 PUSH1 0xE0 SHL DUP2 MSTORE ADDRESS PUSH1 0x4 DUP3 ADD MSTORE PUSH20 0x27B4692C93959048833F40702B22FE3578E77759 SWAP1 PUSH4 0x70A08231 SWAP1 PUSH1 0x24 ADD PUSH1 0x20 PUSH1 0x40 MLOAD DUP1 DUP4 SUB DUP2 DUP7 GAS STATICCALL ISZERO DUP1 ISZERO PUSH2 0xCFE JUMPI RETURNDATASIZE PUSH1 0x0 DUP1 RETURNDATACOPY RETURNDATASIZE PUSH1 0x0 REVERT JUMPDEST POP POP POP POP PUSH1 0x40 MLOAD RETURNDATASIZE PUSH1 0x1F NOT PUSH1 0x1F DUP3 ADD AND DUP3 ADD DUP1 PUSH1 0x40 MSTORE POP DUP2 ADD SWAP1 PUSH2 0xD22 SWAP2 SWAP1 PUSH2 0x1A14 JUMP JUMPDEST SWAP1 POP SWAP1 JUMP JUMPDEST PUSH1 0x40 MLOAD PUSH4 0x474CF53D PUSH1 0xE0 SHL DUP2 MSTORE PUSH20 0x368EEDF3F56AD10B9BC57EED4DAC65B26BB667F6 PUSH1 0x4 DUP3 ADD MSTORE ADDRESS PUSH1 0x24 DUP3 ADD MSTORE PUSH1 0x0 PUSH1 0x44 DUP3 ADD MSTORE PUSH20 0xD5B55D3ED89FDA19124CEB5BAB620328287B915D SWAP1 PUSH4 0x474CF53D SWAP1 CALLVALUE SWAP1 PUSH1 0x64 ADD PUSH1 0x0 PUSH1 0x40 MLOAD DUP1 DUP4 SUB DUP2 DUP6 DUP9 DUP1 EXTCODESIZE ISZERO DUP1 ISZERO PUSH2 0xD95 JUMPI PUSH1 0x0 DUP1 REVERT JUMPDEST POP GAS CALL ISZERO DUP1 ISZERO PUSH2 0xDA9 JUMPI RETURNDATASIZE PUSH1 0x0 DUP1 RETURNDATACOPY RETURNDATASIZE PUSH1 0x0 REVERT JUMPDEST POP POP CALLER PUSH1 0x0 SWAP1 DUP2 MSTORE PUSH1 0x3 PUSH1 0x20 SWAP1 DUP2 MSTORE PUSH1 0x40 DUP1 DUP4 KECCAK256 CALLVALUE SWAP1 SSTORE PUSH1 0x2 SWAP1 SWAP2 MSTORE SWAP1 KECCAK256 SLOAD PUSH1 0xFF AND ISZERO SWAP3 POP PUSH2 0xE09 SWAP2 POP POP JUMPI PUSH1 0x40 MLOAD CALLER DUP2 MSTORE PUSH32 0x4BA5945533F5059CDCDB8FB4ECD150741B32B3C2063637A97925ADAD2B99D9F8 SWAP1 PUSH1 0x20 ADD PUSH1 0x40 MLOAD DUP1 SWAP2 SUB SWAP1 LOG1 JUMPDEST CALLER PUSH1 0x0 SWAP1 DUP2 MSTORE PUSH1 0x2 PUSH1 0x20 MSTORE PUSH1 0x40 SWAP1 KECCAK256 SLOAD PUSH1 0xFF AND PUSH2 0xE8D JUMPI PUSH1 0xD DUP1 SLOAD PUSH1 0x1 DUP2 ADD DUP3 SSTORE PUSH1 0x0 SWAP2 DUP3 MSTORE PUSH32 0xD7B6990105719101DABEB77144F2A3385C8033ACD3AF97E9423A695E81AD1EB5 ADD DUP1 SLOAD PUSH1 0x1 PUSH1 0x1 PUSH1 0xA0 SHL SUB NOT AND CALLER SWAP1 DUP2 OR SWAP1 SWAP2 SSTORE PUSH1 0x40 MLOAD SWAP1 SWAP2 PUSH32 0x1AA8CF33B494BCC2174B90C149BE08F0FECAC18B142440665908C0ABD816CD83 SWAP2 LOG2 JUMPDEST JUMP JUMPDEST CALLER PUSH1 0x0 SWAP1 DUP2 MSTORE PUSH1 0x2 PUSH1 0x20 MSTORE PUSH1 0x40 SWAP1 KECCAK256 SLOAD PUSH1 0xFF AND PUSH2 0xEBE JUMPI PUSH1 0x40 MLOAD PUSH3 0x461BCD PUSH1 0xE5 SHL DUP2 MSTORE PUSH1 0x4 ADD PUSH2 0x5DE SWAP1 PUSH2 0x18E3 JUMP JUMPDEST PUSH1 0x1 PUSH1 0x1 PUSH1 0xA0 SHL SUB DUP2 AND PUSH1 0x0 SWAP1 DUP2 MSTORE PUSH1 0x1 PUSH1 0x20 MSTORE PUSH1 0x40 SWAP1 KECCAK256 SLOAD PUSH1 0xFF AND ISZERO PUSH2 0xF1B JUMPI PUSH1 0x40 MLOAD PUSH3 0x461BCD PUSH1 0xE5 SHL DUP2 MSTORE PUSH1 0x20 PUSH1 0x4 DUP3 ADD MSTORE PUSH1 0x11 PUSH1 0x24 DUP3 ADD MSTORE PUSH17 0x20B63932B0B23C9030B71030B236B4B717 PUSH1 0x79 SHL PUSH1 0x44 DUP3 ADD MSTORE PUSH1 0x64 ADD PUSH2 0x5DE JUMP JUMPDEST PUSH1 0x1 PUSH1 0x1 PUSH1 0xA0 SHL SUB DUP2 AND PUSH1 0x0 SWAP1 DUP2 MSTORE PUSH1 0x1 PUSH1 0x20 DUP2 SWAP1 MSTORE PUSH1 0x40 DUP3 KECCAK256 DUP1 SLOAD PUSH1 0xFF NOT AND SWAP1 SWAP2 OR SWAP1 SSTORE PUSH1 0xA DUP1 SLOAD SWAP2 PUSH2 0xF4E DUP4 PUSH2 0x19F9 JUMP JUMPDEST SWAP1 SWAP2 SSTORE POP POP PUSH1 0x40 MLOAD PUSH1 0x1 PUSH1 0x1 PUSH1 0xA0 SHL SUB DUP3 AND DUP2 MSTORE PUSH32 0x2DBE9FB88463D989ACCCABBB6EE06901F83672EB78E04A11FF48DD8F69A27CDA SWAP1 PUSH1 0x20 ADD PUSH2 0x6B7 JUMP JUMPDEST CALLER PUSH1 0x0 SWAP1 DUP2 MSTORE PUSH1 0x2 PUSH1 0x20 MSTORE PUSH1 0x40 SWAP1 KECCAK256 SLOAD PUSH1 0xFF AND PUSH2 0xFBB JUMPI PUSH1 0x40 MLOAD PUSH3 0x461BCD PUSH1 0xE5 SHL DUP2 MSTORE PUSH1 0x4 ADD PUSH2 0x5DE SWAP1 PUSH2 0x18E3 JUMP JUMPDEST PUSH1 0x1 DUP2 GT PUSH2 0x1028 JUMPI PUSH1 0x40 MLOAD PUSH3 0x461BCD PUSH1 0xE5 SHL DUP2 MSTORE PUSH1 0x20 PUSH1 0x4 DUP3 ADD MSTORE PUSH1 0x34 PUSH1 0x24 DUP3 ADD MSTORE PUSH32 0x5265717569726564206E756D626572206F6620617070726F76616C73206D7573 PUSH1 0x44 DUP3 ADD MSTORE PUSH20 0x3A1031329033B932B0BA32B9103A3430B7101897 PUSH1 0x61 SHL PUSH1 0x64 DUP3 ADD MSTORE PUSH1 0x84 ADD PUSH2 0x5DE JUMP JUMPDEST PUSH1 0x9 DUP2 SWAP1 SSTORE PUSH1 0x40 MLOAD DUP2 DUP2 MSTORE PUSH32 0x7B3040E2C9A6ACEB2A8C327189A13773AF5CAC508876D95A03D06D888BA4363 SWAP1 PUSH1 0x20 ADD PUSH2 0x6B7 JUMP JUMPDEST CALLER PUSH1 0x0 SWAP1 DUP2 MSTORE PUSH1 0x2 PUSH1 0x20 MSTORE PUSH1 0x40 DUP2 KECCAK256 SLOAD PUSH1 0xFF AND PUSH2 0x108C JUMPI PUSH1 0x40 MLOAD PUSH3 0x461BCD PUSH1 0xE5 SHL DUP2 MSTORE PUSH1 0x4 ADD PUSH2 0x5DE SWAP1 PUSH2 0x1929 JUMP JUMPDEST PUSH1 0x40 MLOAD PUSH4 0x70A08231 PUSH1 0xE0 SHL DUP2 MSTORE ADDRESS PUSH1 0x4 DUP3 ADD MSTORE PUSH1 0x0 SWAP1 PUSH20 0x27B4692C93959048833F40702B22FE3578E77759 SWAP1 PUSH4 0x70A08231 SWAP1 PUSH1 0x24 ADD PUSH1 0x20 PUSH1 0x40 MLOAD DUP1 DUP4 SUB DUP2 DUP7 GAS STATICCALL ISZERO DUP1 ISZERO PUSH2 0x10DE JUMPI RETURNDATASIZE PUSH1 0x0 DUP1 RETURNDATACOPY RETURNDATASIZE PUSH1 0x0 REVERT JUMPDEST POP POP POP POP PUSH1 0x40 MLOAD RETURNDATASIZE PUSH1 0x1F NOT PUSH1 0x1F DUP3 ADD AND DUP3 ADD DUP1 PUSH1 0x40 MSTORE POP DUP2 ADD SWAP1 PUSH2 0x1102 SWAP2 SWAP1 PUSH2 0x1A14 JUMP JUMPDEST SWAP1 POP DUP1 DUP6 LT PUSH2 0x1153 JUMPI PUSH1 0x40 MLOAD PUSH3 0x461BCD PUSH1 0xE5 SHL DUP2 MSTORE PUSH1 0x20 PUSH1 0x4 DUP3 ADD MSTORE PUSH1 0x1F PUSH1 0x24 DUP3 ADD MSTORE PUSH32 0x52656475636520796F7572207769746864726177616C20726571756573742E00 PUSH1 0x44 DUP3 ADD MSTORE PUSH1 0x64 ADD PUSH2 0x5DE JUMP JUMPDEST PUSH1 0x1 PUSH1 0x8 PUSH1 0x0 DUP3 DUP3 SLOAD PUSH2 0x1166 SWAP2 SWAP1 PUSH2 0x1773 JUMP JUMPDEST SWAP1 SWAP2 SSTORE POP POP PUSH1 0x8 DUP1 SLOAD PUSH1 0x0 SWAP1 DUP2 MSTORE PUSH1 0x4 PUSH1 0x20 SWAP1 DUP2 MSTORE PUSH1 0x40 DUP1 DUP4 KECCAK256 DUP10 SWAP1 SSTORE DUP4 SLOAD DUP4 MSTORE PUSH1 0x5 DUP3 MSTORE DUP1 DUP4 KECCAK256 DUP4 SWAP1 SSTORE DUP4 SLOAD DUP4 MSTORE PUSH1 0x6 SWAP1 SWAP2 MSTORE SWAP1 DUP2 SWAP1 KECCAK256 DUP1 SLOAD PUSH1 0x1 PUSH1 0x1 PUSH1 0xA0 SHL SUB NOT AND CALLER SWAP1 DUP2 OR SWAP1 SWAP2 SSTORE SWAP2 SLOAD SWAP1 MLOAD PUSH32 0x1D8FC30285830CF912779B6BCF6412013383DD71E787DFA573A17C7860069FFD SWAP3 PUSH2 0x11E8 SWAP3 SWAP2 DUP10 SWAP2 SWAP1 DUP10 SWAP1 DUP10 SWAP1 PUSH2 0x1A2D JUMP JUMPDEST PUSH1 0x40 MLOAD DUP1 SWAP2 SUB SWAP1 LOG1 POP POP PUSH1 0x8 SLOAD SWAP4 SWAP3 POP POP POP JUMP JUMPDEST CALLER PUSH1 0x0 SWAP1 DUP2 MSTORE PUSH1 0x2 PUSH1 0x20 MSTORE PUSH1 0x40 SWAP1 KECCAK256 SLOAD PUSH1 0xFF AND PUSH2 0x122B JUMPI PUSH1 0x40 MLOAD PUSH3 0x461BCD PUSH1 0xE5 SHL DUP2 MSTORE PUSH1 0x4 ADD PUSH2 0x5DE SWAP1 PUSH2 0x18E3 JUMP JUMPDEST PUSH1 0x40 MLOAD PUSH4 0x70A08231 PUSH1 0xE0 SHL DUP2 MSTORE ADDRESS PUSH1 0x4 DUP3 ADD MSTORE PUSH1 0x0 SWAP1 PUSH20 0x27B4692C93959048833F40702B22FE3578E77759 SWAP1 PUSH4 0x70A08231 SWAP1 PUSH1 0x24 ADD PUSH1 0x20 PUSH1 0x40 MLOAD DUP1 DUP4 SUB DUP2 DUP7 GAS STATICCALL ISZERO DUP1 ISZERO PUSH2 0x127D JUMPI RETURNDATASIZE PUSH1 0x0 DUP1 RETURNDATACOPY RETURNDATASIZE PUSH1 0x0 REVERT JUMPDEST POP POP POP POP PUSH1 0x40 MLOAD RETURNDATASIZE PUSH1 0x1F NOT PUSH1 0x1F DUP3 ADD AND DUP3 ADD DUP1 PUSH1 0x40 MSTORE POP DUP2 ADD SWAP1 PUSH2 0x12A1 SWAP2 SWAP1 PUSH2 0x1A14 JUMP JUMPDEST PUSH1 0x40 MLOAD PUSH4 0x95EA7B3 PUSH1 0xE0 SHL DUP2 MSTORE PUSH20 0xD5B55D3ED89FDA19124CEB5BAB620328287B915D PUSH1 0x4 DUP3 ADD MSTORE PUSH1 0x24 DUP2 ADD DUP3 SWAP1 MSTORE SWAP1 SWAP2 POP PUSH20 0x27B4692C93959048833F40702B22FE3578E77759 SWAP1 PUSH4 0x95EA7B3 SWAP1 PUSH1 0x44 ADD PUSH1 0x20 PUSH1 0x40 MLOAD DUP1 DUP4 SUB DUP2 PUSH1 0x0 DUP8 GAS CALL ISZERO DUP1 ISZERO PUSH2 0x1310 JUMPI RETURNDATASIZE PUSH1 0x0 DUP1 RETURNDATACOPY RETURNDATASIZE PUSH1 0x0 REVERT JUMPDEST POP POP POP POP PUSH1 0x40 MLOAD RETURNDATASIZE PUSH1 0x1F NOT PUSH1 0x1F DUP3 ADD AND DUP3 ADD DUP1 PUSH1 0x40 MSTORE POP DUP2 ADD SWAP1 PUSH2 0x1334 SWAP2 SWAP1 PUSH2 0x19D7 JUMP JUMPDEST POP PUSH1 0x40 MLOAD PUSH4 0x4028069 PUSH1 0xE5 SHL DUP2 MSTORE PUSH20 0x368EEDF3F56AD10B9BC57EED4DAC65B26BB667F6 PUSH1 0x4 DUP3 ADD MSTORE PUSH1 0x0 NOT PUSH1 0x24 DUP3 ADD MSTORE CALLER PUSH1 0x44 DUP3 ADD MSTORE PUSH20 0xD5B55D3ED89FDA19124CEB5BAB620328287B915D SWAP1 PUSH4 0x80500D20 SWAP1 PUSH1 0x64 ADD PUSH1 0x0 PUSH1 0x40 MLOAD DUP1 DUP4 SUB DUP2 PUSH1 0x0 DUP8 DUP1 EXTCODESIZE ISZERO DUP1 ISZERO PUSH2 0x13A3 JUMPI PUSH1 0x0 DUP1 REVERT JUMPDEST POP GAS CALL ISZERO DUP1 ISZERO PUSH2 0x13B7 JUMPI RETURNDATASIZE PUSH1 0x0 DUP1 RETURNDATACOPY RETURNDATASIZE PUSH1 0x0 REVERT JUMPDEST POP POP PUSH1 0x40 DUP1 MLOAD CALLER DUP2 MSTORE PUSH1 0x20 DUP2 ADD DUP6 SWAP1 MSTORE PUSH32 0xBC158BB64F05D6383AEA69BBB0B20C1BBF4B7A18F63359C5649B7C39E29D3884 SWAP4 POP ADD SWAP1 POP PUSH2 0x6B7 JUMP JUMPDEST CALLER PUSH1 0x0 SWAP1 DUP2 MSTORE PUSH1 0x2 PUSH1 0x20 MSTORE PUSH1 0x40 SWAP1 KECCAK256 SLOAD PUSH1 0xFF AND PUSH2 0x1421 JUMPI PUSH1 0x40 MLOAD PUSH3 0x461BCD PUSH1 0xE5 SHL DUP2 MSTORE PUSH1 0x4 ADD PUSH2 0x5DE SWAP1 PUSH2 0x1929 JUMP JUMPDEST PUSH1 0x0 DUP2 DUP2 MSTORE PUSH1 0x6 PUSH1 0x20 MSTORE PUSH1 0x40 SWAP1 KECCAK256 SLOAD PUSH1 0x1 PUSH1 0x1 PUSH1 0xA0 SHL SUB AND CALLER EQ ISZERO PUSH2 0x1494 JUMPI PUSH1 0x40 MLOAD PUSH3 0x461BCD PUSH1 0xE5 SHL DUP2 MSTORE PUSH1 0x20 PUSH1 0x4 DUP3 ADD MSTORE PUSH1 0x24 DUP1 DUP3 ADD MSTORE PUSH32 0x596F752063616E6E6F7420617070726F766520796F7572206F776E2072657175 PUSH1 0x44 DUP3 ADD MSTORE PUSH4 0x32B9BA17 PUSH1 0xE1 SHL PUSH1 0x64 DUP3 ADD MSTORE PUSH1 0x84 ADD PUSH2 0x5DE JUMP JUMPDEST PUSH1 0x0 DUP2 DUP2 MSTORE PUSH1 0x5 PUSH1 0x20 MSTORE PUSH1 0x40 DUP2 KECCAK256 DUP1 SLOAD PUSH1 0x1 SWAP3 SWAP1 PUSH2 0x14B3 SWAP1 DUP5 SWAP1 PUSH2 0x1773 JUMP JUMPDEST SWAP1 SWAP2 SSTORE POP POP CALLER PUSH1 0x0 SWAP1 DUP2 MSTORE PUSH1 0x7 PUSH1 0x20 SWAP1 DUP2 MSTORE PUSH1 0x40 DUP1 DUP4 KECCAK256 DUP5 DUP5 MSTORE SWAP1 SWAP2 MSTORE SWAP1 KECCAK256 DUP1 SLOAD PUSH1 0xFF NOT AND PUSH1 0x1 SWAP1 DUP2 OR SWAP1 SWAP2 SSTORE PUSH1 0xB SLOAD PUSH2 0x14ED SWAP2 SWAP1 PUSH2 0x19C0 JUMP JUMPDEST PUSH1 0x0 DUP3 DUP2 MSTORE PUSH1 0x5 PUSH1 0x20 MSTORE PUSH1 0x40 SWAP1 KECCAK256 SLOAD EQ ISZERO PUSH2 0x1546 JUMPI PUSH1 0x0 DUP2 DUP2 MSTORE PUSH1 0x4 PUSH1 0x20 SWAP1 DUP2 MSTORE PUSH1 0x40 SWAP2 DUP3 SWAP1 KECCAK256 SLOAD DUP3 MLOAD DUP5 DUP2 MSTORE SWAP2 DUP3 ADD MSTORE PUSH32 0x9FD195F23BA42BAC4B641D098DD3C8AC2743BF8F412FE6B25F18239F8C507977 SWAP2 ADD PUSH2 0x6B7 JUMP JUMPDEST POP JUMP JUMPDEST PUSH1 0xD DUP2 DUP2 SLOAD DUP2 LT PUSH2 0x1559 JUMPI PUSH1 0x0 DUP1 REVERT JUMPDEST PUSH1 0x0 SWAP2 DUP3 MSTORE PUSH1 0x20 SWAP1 SWAP2 KECCAK256 ADD SLOAD PUSH1 0x1 PUSH1 0x1 PUSH1 0xA0 SHL SUB AND SWAP1 POP DUP2 JUMP JUMPDEST CALLER PUSH1 0x0 SWAP1 DUP2 MSTORE PUSH1 0x2 PUSH1 0x20 MSTORE PUSH1 0x40 DUP2 KECCAK256 SLOAD PUSH1 0xFF AND PUSH2 0x15A2 JUMPI PUSH1 0x40 MLOAD PUSH3 0x461BCD PUSH1 0xE5 SHL DUP2 MSTORE PUSH1 0x4 ADD PUSH2 0x5DE SWAP1 PUSH2 0x1929 JUMP JUMPDEST SELFBALANCE DUP1 PUSH2 0x15DF JUMPI PUSH1 0x40 MLOAD PUSH3 0x461BCD PUSH1 0xE5 SHL DUP2 MSTORE PUSH1 0x20 PUSH1 0x4 DUP3 ADD MSTORE PUSH1 0xC PUSH1 0x24 DUP3 ADD MSTORE PUSH12 0x2737903932B9B2B93B32B997 PUSH1 0xA1 SHL PUSH1 0x44 DUP3 ADD MSTORE PUSH1 0x64 ADD PUSH2 0x5DE JUMP JUMPDEST PUSH1 0x1 PUSH1 0x8 PUSH1 0x0 DUP3 DUP3 SLOAD PUSH2 0x15F2 SWAP2 SWAP1 PUSH2 0x1773 JUMP JUMPDEST SWAP1 SWAP2 SSTORE POP POP PUSH1 0x8 DUP1 SLOAD PUSH1 0x0 SWAP1 DUP2 MSTORE PUSH1 0x4 PUSH1 0x20 SWAP1 DUP2 MSTORE PUSH1 0x40 DUP1 DUP4 KECCAK256 DUP6 SWAP1 SSTORE DUP4 SLOAD DUP4 MSTORE PUSH1 0x5 DUP3 MSTORE DUP1 DUP4 KECCAK256 DUP4 SWAP1 SSTORE DUP4 SLOAD DUP4 MSTORE PUSH1 0x6 SWAP1 SWAP2 MSTORE SWAP1 DUP2 SWAP1 KECCAK256 DUP1 SLOAD PUSH1 0x1 PUSH1 0x1 PUSH1 0xA0 SHL SUB NOT AND CALLER SWAP1 DUP2 OR SWAP1 SWAP2 SSTORE SWAP2 SLOAD SWAP1 MLOAD PUSH32 0xEA6BF89D95BD06A82BA1B04A10044A726BBE4E92E16C5BBA14299CBA3C288120 SWAP3 PUSH2 0x1674 SWAP3 SWAP2 DUP6 SWAP2 SWAP1 DUP10 SWAP1 DUP10 SWAP1 PUSH2 0x1A2D JUMP JUMPDEST PUSH1 0x40 MLOAD DUP1 SWAP2 SUB SWAP1 LOG1 POP POP PUSH1 0x8 SLOAD SWAP3 SWAP2 POP POP JUMP JUMPDEST CALLER PUSH1 0x0 SWAP1 DUP2 MSTORE PUSH1 0x2 PUSH1 0x20 MSTORE PUSH1 0x40 SWAP1 KECCAK256 SLOAD PUSH1 0xFF AND PUSH2 0x16B6 JUMPI PUSH1 0x40 MLOAD PUSH3 0x461BCD PUSH1 0xE5 SHL DUP2 MSTORE PUSH1 0x4 ADD PUSH2 0x5DE SWAP1 PUSH2 0x1929 JUMP JUMPDEST CALLER PUSH1 0x0 SWAP1 DUP2 MSTORE PUSH1 0x7 PUSH1 0x20 SWAP1 DUP2 MSTORE PUSH1 0x40 DUP1 DUP4 KECCAK256 DUP5 DUP5 MSTORE SWAP1 SWAP2 MSTORE SWAP1 KECCAK256 SLOAD PUSH1 0xFF AND PUSH2 0x1736 JUMPI PUSH1 0x40 MLOAD PUSH3 0x461BCD PUSH1 0xE5 SHL DUP2 MSTORE PUSH1 0x20 PUSH1 0x4 DUP3 ADD MSTORE PUSH1 0x2D PUSH1 0x24 DUP3 ADD MSTORE PUSH32 0x43616E6E6F74207265766F6B65207768617420796F752068617665206E6F7420 PUSH1 0x44 DUP3 ADD MSTORE PUSH13 0x3CB2BA1030B8383937BB32B217 PUSH1 0x99 SHL PUSH1 0x64 DUP3 ADD MSTORE PUSH1 0x84 ADD PUSH2 0x5DE JUMP JUMPDEST PUSH1 0x0 DUP2 DUP2 MSTORE PUSH1 0x5 PUSH1 0x20 MSTORE PUSH1 0x40 DUP2 KECCAK256 DUP1 SLOAD PUSH1 0x1 SWAP3 SWAP1 PUSH2 0x1755 SWAP1 DUP5 SWAP1 PUSH2 0x19C0 JUMP JUMPDEST SWAP1 SWAP2 SSTORE POP POP POP JUMP JUMPDEST PUSH4 0x4E487B71 PUSH1 0xE0 SHL PUSH1 0x0 MSTORE PUSH1 0x11 PUSH1 0x4 MSTORE PUSH1 0x24 PUSH1 0x0 REVERT JUMPDEST PUSH1 0x0 DUP3 NOT DUP3 GT ISZERO PUSH2 0x1786 JUMPI PUSH2 0x1786 PUSH2 0x175D JUMP JUMPDEST POP ADD SWAP1 JUMP JUMPDEST DUP1 CALLDATALOAD PUSH1 0x1 PUSH1 0x1 PUSH1 0xA0 SHL SUB DUP2 AND DUP2 EQ PUSH2 0x17A2 JUMPI PUSH1 0x0 DUP1 REVERT JUMPDEST SWAP2 SWAP1 POP JUMP JUMPDEST PUSH1 0x0 PUSH1 0x20 DUP3 DUP5 SUB SLT ISZERO PUSH2 0x17B9 JUMPI PUSH1 0x0 DUP1 REVERT JUMPDEST PUSH2 0x17C2 DUP3 PUSH2 0x178B JUMP JUMPDEST SWAP4 SWAP3 POP POP POP JUMP JUMPDEST PUSH1 0x0 PUSH1 0x20 DUP3 DUP5 SUB SLT ISZERO PUSH2 0x17DB JUMPI PUSH1 0x0 DUP1 REVERT JUMPDEST POP CALLDATALOAD SWAP2 SWAP1 POP JUMP JUMPDEST PUSH1 0x0 DUP1 PUSH1 0x40 DUP4 DUP6 SUB SLT ISZERO PUSH2 0x17F5 JUMPI PUSH1 0x0 DUP1 REVERT JUMPDEST PUSH2 0x17FE DUP4 PUSH2 0x178B JUMP JUMPDEST SWAP5 PUSH1 0x20 SWAP4 SWAP1 SWAP4 ADD CALLDATALOAD SWAP4 POP POP POP JUMP JUMPDEST PUSH1 0x0 DUP1 DUP4 PUSH1 0x1F DUP5 ADD SLT PUSH2 0x181E JUMPI PUSH1 0x0 DUP1 REVERT JUMPDEST POP DUP2 CALLDATALOAD PUSH8 0xFFFFFFFFFFFFFFFF DUP2 GT ISZERO PUSH2 0x1836 JUMPI PUSH1 0x0 DUP1 REVERT JUMPDEST PUSH1 0x20 DUP4 ADD SWAP2 POP DUP4 PUSH1 0x20 DUP3 DUP6 ADD ADD GT ISZERO PUSH2 0x184E JUMPI PUSH1 0x0 DUP1 REVERT JUMPDEST SWAP3 POP SWAP3 SWAP1 POP JUMP JUMPDEST PUSH1 0x0 DUP1 PUSH1 0x0 PUSH1 0x40 DUP5 DUP7 SUB SLT ISZERO PUSH2 0x186A JUMPI PUSH1 0x0 DUP1 REVERT JUMPDEST DUP4 CALLDATALOAD SWAP3 POP PUSH1 0x20 DUP5 ADD CALLDATALOAD PUSH8 0xFFFFFFFFFFFFFFFF DUP2 GT ISZERO PUSH2 0x1888 JUMPI PUSH1 0x0 DUP1 REVERT JUMPDEST PUSH2 0x1894 DUP7 DUP3 DUP8 ADD PUSH2 0x180C JUMP JUMPDEST SWAP5 SWAP8 SWAP1 SWAP7 POP SWAP4 SWAP5 POP POP POP POP JUMP JUMPDEST PUSH1 0x0 DUP1 PUSH1 0x20 DUP4 DUP6 SUB SLT ISZERO PUSH2 0x18B4 JUMPI PUSH1 0x0 DUP1 REVERT JUMPDEST DUP3 CALLDATALOAD PUSH8 0xFFFFFFFFFFFFFFFF DUP2 GT ISZERO PUSH2 0x18CB JUMPI PUSH1 0x0 DUP1 REVERT JUMPDEST PUSH2 0x18D7 DUP6 DUP3 DUP7 ADD PUSH2 0x180C JUMP JUMPDEST SWAP1 SWAP7 SWAP1 SWAP6 POP SWAP4 POP POP POP POP JUMP JUMPDEST PUSH1 0x20 DUP1 DUP3 MSTORE PUSH1 0x15 SWAP1 DUP3 ADD MSTORE PUSH21 0x2CB7BA9030B932903737BA1030B71030B236B4B717 PUSH1 0x59 SHL PUSH1 0x40 DUP3 ADD MSTORE PUSH1 0x60 ADD SWAP1 JUMP JUMPDEST PUSH1 0x0 DUP2 PUSH2 0x1921 JUMPI PUSH2 0x1921 PUSH2 0x175D JUMP JUMPDEST POP PUSH1 0x0 NOT ADD SWAP1 JUMP JUMPDEST PUSH1 0x20 DUP1 DUP3 MSTORE PUSH1 0x23 SWAP1 DUP3 ADD MSTORE PUSH32 0x596F7520617265206E6F742061206D656D626572206F66207468652066616D69 PUSH1 0x40 DUP3 ADD MSTORE PUSH3 0x363C97 PUSH1 0xE9 SHL PUSH1 0x60 DUP3 ADD MSTORE PUSH1 0x80 ADD SWAP1 JUMP JUMPDEST PUSH1 0x20 DUP1 DUP3 MSTORE PUSH1 0x34 SWAP1 DUP3 ADD MSTORE PUSH32 0x4D6F726520617070726F76616C7320617265207265717569726564206265666F PUSH1 0x40 DUP3 ADD MSTORE PUSH20 0x3932903CB7BA9031B0B7103BB4BA34323930BB97 PUSH1 0x61 SHL PUSH1 0x60 DUP3 ADD MSTORE PUSH1 0x80 ADD SWAP1 JUMP JUMPDEST PUSH1 0x0 DUP3 DUP3 LT ISZERO PUSH2 0x19D2 JUMPI PUSH2 0x19D2 PUSH2 0x175D JUMP JUMPDEST POP SUB SWAP1 JUMP JUMPDEST PUSH1 0x0 PUSH1 0x20 DUP3 DUP5 SUB SLT ISZERO PUSH2 0x19E9 JUMPI PUSH1 0x0 DUP1 REVERT JUMPDEST DUP2 MLOAD DUP1 ISZERO ISZERO DUP2 EQ PUSH2 0x17C2 JUMPI PUSH1 0x0 DUP1 REVERT JUMPDEST PUSH1 0x0 PUSH1 0x0 NOT DUP3 EQ ISZERO PUSH2 0x1A0D JUMPI PUSH2 0x1A0D PUSH2 0x175D JUMP JUMPDEST POP PUSH1 0x1 ADD SWAP1 JUMP JUMPDEST PUSH1 0x0 PUSH1 0x20 DUP3 DUP5 SUB SLT ISZERO PUSH2 0x1A26 JUMPI PUSH1 0x0 DUP1 REVERT JUMPDEST POP MLOAD SWAP2 SWAP1 POP JUMP JUMPDEST DUP6 DUP2 MSTORE PUSH1 0x20 DUP2 ADD DUP6 SWAP1 MSTORE PUSH1 0x1 PUSH1 0x1 PUSH1 0xA0 SHL SUB DUP5 AND PUSH1 0x40 DUP3 ADD MSTORE PUSH1 0x80 PUSH1 0x60 DUP3 ADD DUP2 SWAP1 MSTORE DUP2 ADD DUP3 SWAP1 MSTORE DUP2 DUP4 PUSH1 0xA0 DUP4 ADD CALLDATACOPY PUSH1 0x0 DUP2 DUP4 ADD PUSH1 0xA0 SWAP1 DUP2 ADD SWAP2 SWAP1 SWAP2 MSTORE PUSH1 0x1F SWAP1 SWAP3 ADD PUSH1 0x1F NOT AND ADD ADD SWAP5 SWAP4 POP POP POP POP JUMP INVALID LOG2 PUSH5 0x6970667358 0x22 SLT KECCAK256 SMOD 0xAC CALLDATALOAD 0xB6 0xFC BALANCE OR 0xD3 PUSH32 0xB19FAB3EF0C54BD49047A8186593FE5BC9B38867DF377364736F6C634300080C STOP CALLER ",
  "sha1": "4736b0f07642a7f3a2997fa0514859e362c9bcac",
  "source": "// SPDX-License-Identifier: LGPL-3.0\n\npragma solidity ^0.8.10;\n\nimport \"../../interfaces/IERC20.sol\";\nimport \"../../interfaces/IPool.sol\";\nimport \"../../interfaces/IWETHGateway.sol\";\n\n/**\n * @title DeFi Multi-Sig Savings Account\n * @author Okiki Olugunna\n * @notice This contract is intended to be used as a multisig savings account with your family\n * This same contract can be use for generations and generations, effectively maintaing your family's wealth\n * as long as the individuals are added to the family addresses.\n * @notice This contract can also be extended to other use cases where\n * you want to save funds as a group & want to implement multi-sig functionality\n * for withdrawals.\n * @dev This contract is intended for the Goerli Testnet.\n */\ncontract EthSavings {\n    /**\n     * @notice This is the admin of the contract\n     * @dev The admin is the deployer of the contract\n     */\n    address payable public admin;\n\n    /**\n     * @notice This is the contract address of the Aave V3 Pool on Goerli\n     */\n    IPool public constant AAVE_V3_POOL =\n        IPool(0x368EedF3f56ad10b9bC57eed4Dac65B26Bb667f6);\n\n    /**\n     * @notice This is the contract address of the WETH Gateway on Goerli\n     * @dev This is where the ETH sent to the easySaveETH() function goes through to get to the Pool\n     */\n    IWETHGateway public constant WETH_GATEWAY =\n        IWETHGateway(0xd5B55D3Ed89FDa19124ceB5baB620328287b915d);\n\n    /**\n     * @notice This is the contract address of the WETH 'a' token on Aave V3 (Goerli)\n     * @dev The ETH sent to Aave V3 via the WETH Gateway accrues interest in the form of 'aWETH'\n     */\n    IERC20 public constant WETH_ATOKEN =\n        IERC20(0x27B4692C93959048833f40702b22FE3578E77759);\n\n    /// @notice This mapping stores whether someone is an admins\n    mapping(address => bool) isAdmin;\n\n    /// @notice This mapping stores whether someone is a family member\n    mapping(address => bool) isFamilyMember;\n\n    /// @notice This mapping stores what people have deposited\n    mapping(address => uint256) public depositedAmount;\n\n    /// @notice Ths mapping stores the withdrawal requestID & links it to the amount the individual wants to withdraw\n    mapping(uint256 => uint256) public requestIDToAmount;\n\n    /// @notice This mapping counts the approvals that have been made for a requestID\n    mapping(uint256 => uint256) public requestIDToApprovals;\n\n    /// @notice This mapping links the requestID to the address who made the request\n    mapping(uint256 => address) public requestIDToRequester;\n\n    /// @notice This mapping stores whether an address has voted on a requestID\n    mapping(address => mapping(uint256 => bool)) public hasVotedOnRequestID;\n\n    /**\n     * @notice This is the current request ID\n     * @dev This value gets incremented each time someone makes a request\n     */\n    uint256 public requestID;\n\n    /// @notice This is the required number of approvals for a request to go through\n    uint256 public requiredApprovals;\n\n    /// @notice This variable keeps track of the number of admins\n    uint256 public numOfAdmins;\n\n    /// @notice This variable keeps track of the number of family members\n    uint256 public numOfFamilyMembers;\n\n    /**\n     * @notice This variable keeps track of the 'reserve ETH' in the contract\n     * @dev 'reserveETH' is merely the ETH held directly in the contract & not developing interest in Aave\n     */\n    uint256 public reserveETH;\n\n    // array of admins\n    // address[] public allAdmins;\n\n    /// @notice This array keeps track of non-family members who added to the savings\n    address[] public nicePeople;\n\n    // store the accrued fees\n    // uint256 accruedFees;\n\n    /**\n     * @notice This event gets triggered when a family member contributes to the savings using easySaveETH()\n     * @param _familyMember The address that added to the savings\n     */\n    event SavingsAdded(address _familyMember);\n\n    /**\n     * @notice This event gets triggered when non-family members add to the savings using easySaveETH()\n     * @param _person The outsider address that added to the savings\n     */\n    event OutsiderAddedFunds(address indexed _person);\n\n    /**\n     * @notice This event gets triggered when someone requests a withdrawal from the savings using requestWithdrawal()\n     * @param _requestID The requestID of the withdrawal request\n     * @param _amount The amount requested to be withdrawn from the savings on Aave\n     * @param _person The address making the request\n     * @param _reason The reason for the withdrawal\n     */\n    event WithdrawalRequested(\n        uint256 _requestID,\n        uint256 _amount,\n        address _person,\n        string _reason\n    );\n\n    /**\n     * @notice This event gets triggered when someone requests a withdrawal from the reserves using requestToWithdrawReserves()\n     * @param _requestID The requestID of the reserves withdrawal request\n     * @param _amount The amount requested to be withdrawn from the reserves\n     * @param _person The address making the request\n     * @param _reason The reason for the withdrawal\n     */\n    event ReservesWithdrawalRequested(\n        uint256 _requestID,\n        uint256 _amount,\n        address _person,\n        string _reason\n    );\n\n    /**\n     * @notice This event gets triggered when every family member has approvaled a requestID\n     * @dev If the requiredApprovals is much lower than the number of family members, then this will not be triggered often\n     * @param _requestID The requestID that has been approved\n     * @param _amount The amount that the requester wishes to withdraw from the savings\n     */\n    event AllApproved(uint256 _requestID, uint256 _amount);\n\n    /**\n     * @notice This event gets triggered when the number of required approvals is changed using changeRequiredApprovals()\n     * @param _newApprovalNumber The new number of required approvals for a request to go through\n     */\n    event RequiredApprovalsChanged(uint256 _newApprovalNumber);\n\n    /**\n     * @notice This event gets triggered when a withdrawal is executed from the savings after the number of required approvals has been reached using withdrawSavedETH()\n     * @param _person The address that executed the withdrawal from the Aave savings\n     * @param _amount The amount that the address withdrew from savings\n     */\n    event WithdrawalMade(address _person, uint256 _amount);\n\n    /**\n     * @notice This event gets triggered when a reserve withdrawal is made after the number of required approvals has been reached using executeReserveWithdrawal()\n     * @param _person The address that executed the withdrawal from the reserves\n     * @param _amount The amount that the address withdrew from the reserves\n     */\n    event ReservesWithdrawalMade(address _person, uint256 _amount);\n\n    /**\n     * @notice This event gets triggered when a family member is added using addFamilyMember()\n     * @param _person The address that has been added to the family\n     */\n    event FamilyMemberAdded(address _person);\n\n    /**\n     * @notice This event gets triggered when a family member is removed using removeFamilyMember()\n     * @param _person The address that has been removed from the family\n     */\n    event FamilyMemberRemoved(address _person);\n\n    /**\n     * @notice This event gets triggered when an admin is added using addAdmin()\n     * @param _newAdmin The address that has been added as an admin\n     */\n    event NewAdminAdded(address _newAdmin);\n\n    /**\n     * @notice This event gets triggered when an admin is removed\n     * @param _oldAdmin The address that been removed as an admin\n     */\n    event AdminRemoved(address _oldAdmin);\n\n    /// @dev Only family members can call functions marked by this modifier\n    modifier onlyFamily() {\n        require(\n            isFamilyMember[msg.sender],\n            \"You are not a member of the family.\"\n        );\n        _;\n    }\n\n    /// @dev Only admins can call functions marked by this modifier\n    modifier onlyAdmin() {\n        require(isFamilyMember[msg.sender], \"You are not an admin.\");\n        _;\n    }\n\n    /**\n     * @dev constructor\n     * @param _requiredApprovals The number to initialise as the required approvals for a withdrawal request to go through\n     */\n    constructor(uint256 _requiredApprovals) {\n        // initialising the admin\n        admin = payable(msg.sender);\n        isAdmin[msg.sender] = true;\n        numOfAdmins = 1;\n\n        // initialising the admin as a family member\n        isFamilyMember[msg.sender] = true;\n        numOfFamilyMembers = 1;\n\n        // initialising the number of approvals required for a withdrawal to be accepted\n        requiredApprovals = _requiredApprovals;\n    }\n\n    /**\n     * @notice This function allows family members & outsider to deposit ETH into this savings\n     */\n    function easySaveETH() external payable {\n        // supplying ETH to Aave\n        WETH_GATEWAY.depositETH{value: msg.value}(\n            address(AAVE_V3_POOL),\n            address(this),\n            0\n        );\n\n        // updating the depositedAmount mapping\n        depositedAmount[msg.sender] = msg.value;\n\n        // if it was a family member that contributed\n        if (isFamilyMember[msg.sender]) {\n            emit SavingsAdded(msg.sender);\n        }\n\n        // if the address is not a family member\n        if (!isFamilyMember[msg.sender]) {\n            // adding the address to 'nicePeople' array\n            nicePeople.push(msg.sender);\n            // emitting event\n            emit OutsiderAddedFunds(msg.sender);\n        }\n    }\n\n    /**\n     * @notice This function is for family members to view the current savings amount in Aave\n     * @return uint256 The value returned is the 'aWETH' holdings\n     */\n    function viewFamilyHoldings() external view onlyFamily returns (uint256) {\n        return WETH_ATOKEN.balanceOf(address(this));\n    }\n\n    /**\n     * @notice This function is for a family member to request a withdrawal\n     * @param _amount The amount to withdraw from Aave\n     * @param _reason The reason for the withdrawal\n     * @return requestID The requestID for this withdrawal request\n     */\n    function requestWithdrawal(uint256 _amount, string calldata _reason)\n        external\n        onlyFamily\n        returns (uint256)\n    {\n        // initialising the savings balance\n        uint256 aWETHBalance = WETH_ATOKEN.balanceOf(address(this));\n        // requested amount to withdraw must be less than the savings\n        require(_amount < aWETHBalance, \"Reduce your withdrawal request.\");\n\n        // initialising an id for the request\n        requestID += 1;\n        // adding request and amount to withdrawal requests\n        requestIDToAmount[requestID] = _amount;\n        // initialising the requestID in the mapping of approvals\n        requestIDToApprovals[requestID] = 0;\n        // linking the requestser to the request ID\n        requestIDToRequester[requestID] = msg.sender;\n\n        // emitting withdrawal request event\n        emit WithdrawalRequested(requestID, _amount, msg.sender, _reason);\n\n        // returning the requestID to the msg.sender\n        return requestID;\n    }\n\n    /**\n     * @notice This function is for family members to approve a withdrawal submission\n     * @notice If you try to approve your own request, this function will revert\n     * @param _requestID The requestID to approve\n     */\n    function approveRequest(uint256 _requestID) external onlyFamily {\n        // you cannot approve your own request\n        require(\n            requestIDToRequester[_requestID] != msg.sender,\n            \"You cannot approve your own request.\"\n        );\n\n        // incrementing the number of approvals for the request ID\n        requestIDToApprovals[_requestID] += 1;\n\n        // updating the mapping to show the msgsender has voted on the request\n        hasVotedOnRequestID[msg.sender][_requestID] = true;\n\n        // if approvals are equal to (num of family members -1), then emit AllApproved event\n        if (requestIDToApprovals[_requestID] == (numOfFamilyMembers - 1)) {\n            // emit event\n            emit AllApproved(_requestID, requestIDToAmount[_requestID]);\n        }\n    }\n\n    /**\n     * @notice This function allows family members to revoke a withdrawal request they have already approved\n     * @param _requestID The requestID to revoke your approval of\n     * @notice You cannot call this function if you have not yet approved the request\n     */\n    function revokeRequest(uint256 _requestID) external onlyFamily {\n        // the person revoking a request must have already approved before calling this\n        require(\n            hasVotedOnRequestID[msg.sender][_requestID],\n            \"Cannot revoke what you have not yet approved.\"\n        );\n\n        // decrementing the number of approvals for the request\n        requestIDToApprovals[_requestID] -= 1;\n    }\n\n    /**\n     * @notice This function allows family members to execute their requestID withdrawal of savings from Aave after the required number approvals has been reached\n     * @param _requestID The requestID for the withdrawal request\n     * @notice Another family member can call this function for you, but the funds will still go to the initial requester's account\n     */\n    function withdrawSavedETH(uint256 _requestID) external payable onlyFamily {\n        // requiring that the family members have approved the sender to withdraw x amount from the savings\n        require(\n            requestIDToApprovals[_requestID] >= requiredApprovals,\n            \"More approvals are required before you can withdraw.\"\n        );\n\n        // initialising how much to withdraw from the savings\n        uint256 withdrawalAmount = requestIDToAmount[_requestID];\n\n        // updating the mapping of how much this member has deposited\n        depositedAmount[msg.sender] -= withdrawalAmount; // will revert if withdrawing more than you've put in\n\n        // approving the gateway to spend the aWETH\n        WETH_ATOKEN.approve(address(WETH_GATEWAY), withdrawalAmount);\n\n        // withdrawing the interest and ETH + sending it to the owner\n        WETH_GATEWAY.withdrawETH(\n            address(AAVE_V3_POOL),\n            withdrawalAmount,\n            requestIDToRequester[_requestID]\n        );\n\n        // emitting event\n        emit WithdrawalMade(msg.sender, withdrawalAmount);\n    }\n\n    /**\n     * @notice This function allows the admin to withdraw all savings from Aave\n     * @notice This function will not withdraw the ETH in the reserves\n     * @dev Only the admin(s) can call this\n     */\n    function withdrawEverything() external payable onlyAdmin {\n        // calculating the amount of aWETH earned\n        uint256 aWETHBalance = WETH_ATOKEN.balanceOf(address(this));\n\n        // approving the gateway to spend the aWETH\n        WETH_ATOKEN.approve(address(WETH_GATEWAY), aWETHBalance);\n\n        // withdrawing the interest and ETH + sending it to the owner\n        WETH_GATEWAY.withdrawETH(\n            address(AAVE_V3_POOL),\n            type(uint256).max,\n            msg.sender\n        );\n\n        // emitting event\n        emit WithdrawalMade(msg.sender, aWETHBalance);\n    }\n\n    // function for admin to withdraw the accruedFees\n    // function withdrawFees() external onlyAdmin {}\n\n    /**\n     * @notice This function allows the admin to add a family member this contract\n     * @param _person The address to add to the family\n     */\n    function addFamilyMember(address _person) external onlyAdmin {\n        // must not already be a family member\n        require(!isFamilyMember[_person], \"Already a family member.\");\n\n        // updating the mapping to hold add this person to the family\n        isFamilyMember[_person] = true;\n\n        // incrementing number of family members\n        numOfFamilyMembers++;\n\n        // emitting event for new person added\n        emit FamilyMemberAdded(_person);\n    }\n\n    /**\n     * @notice This function allows the admin to remove a family member from the contract\n     * @param _person The address to remove from the family\n     */\n    function removeFamilyMember(address _person) external onlyAdmin {\n        // must be a family member first to remove\n        require(isFamilyMember[_person], \"Address is not a family member.\");\n\n        // updating the mapping to hold add this person to the family\n        isFamilyMember[_person] = false;\n\n        // decrementing number of family members\n        numOfFamilyMembers--;\n\n        // emitting event for new person added\n        emit FamilyMemberRemoved(_person);\n    }\n\n    /**\n     * @notice This function allows the admin to change the required number of approvals for a withdrawal request to go through\n     * @param _newApprovalNum The new number of required approvals for a request to go through\n     */\n    function changeRequiredApprovals(uint256 _newApprovalNum)\n        external\n        onlyAdmin\n    {\n        require(\n            _newApprovalNum > 1,\n            \"Required number of approvals must be greater than 1.\"\n        );\n        // changing the required approvals\n        requiredApprovals = _newApprovalNum;\n\n        // emitting event for change in required approvals\n        emit RequiredApprovalsChanged(_newApprovalNum);\n    }\n\n    /**\n     * @notice This function allows the admin to add another admin\n     * @param _newAdmin The address of the new admin to be added\n     * @notice This new admin will *not* automatically be family\n     * @dev To add this admin to family, also call the addFamilyMember function\n     */\n    function addAdmin(address _newAdmin) external onlyAdmin {\n        // must not already be an admin\n        require(!isAdmin[_newAdmin], \"Already an admin.\");\n\n        // updating the mapping to hold add this person to the admins\n        isAdmin[_newAdmin] = true;\n\n        // incrementing the number of admins\n        numOfAdmins++;\n\n        // emitting event for new person added\n        emit NewAdminAdded(_newAdmin);\n    }\n\n    /**\n     * @notice This function allows an admin to remove an admin\n     * @param _admin The address of the admin to remove\n     * @notice If the admin being removed is also a family member, this function will not change their familial status\n     */\n    function removeAdmin(address _admin) external onlyAdmin {\n        // the address must be an admin to remove it\n        require(isAdmin[_admin], \"Address to remove must be an admin first\");\n\n        // there must be at least 2 admins, if you want to remove an admin\n        require(numOfAdmins >= 2, \"There must always be at least 1 admin.\");\n\n        // updating the mapping to hold add this person to the admins\n        isAdmin[_admin] = false;\n\n        // decrementing the number of admins\n        numOfAdmins--;\n\n        // emitting event for new person added\n        emit AdminRemoved(_admin);\n    }\n\n    /**\n     * @notice This function allows anyone to send ETH to the 'reserves'\n     * @notice Sending direct ETH to the contract like this will not send it to Aave to develop interest\n     */\n    receive() external payable {\n        // the ETH received here can act as a reserve for the family savings\n        reserveETH += msg.value;\n    }\n\n    /**\n     * @notice This function allows family members to request a withdrawal from the reserves\n     * @param _reason The reason for the withdrawal from the reserves\n     * @return requestID The requestID for the withdrawal request\n     * @dev 'reserves' is the ETH sitting directly in the contract\n     */\n    function requestToWithdrawReserves(string calldata _reason)\n        external\n        onlyFamily\n        returns (uint256)\n    {\n        // getting the amount in reserves\n        uint256 reservesAmount = address(this).balance;\n        // reserves must be above 0 to request\n        require(reservesAmount > 0, \"No reserves.\");\n\n        // initialising an id for the request\n        requestID += 1;\n\n        // adding request and amount to withdrawal requests\n        requestIDToAmount[requestID] = reservesAmount;\n\n        // initialising the requestID in the mapping of approvals\n        requestIDToApprovals[requestID] = 0;\n\n        // linking the requestser to the request ID\n        requestIDToRequester[requestID] = msg.sender;\n\n        // emitting withdrawal request event\n        emit ReservesWithdrawalRequested(\n            requestID,\n            reservesAmount,\n            msg.sender,\n            _reason\n        );\n\n        // returning the requestID to the msg.sender\n        return requestID;\n    }\n\n    /**\n     * @notice This function allows family members to execute the withdrawal from the reserves once the request has reached the required number of approvals\n     * @param _requestID The requestID of the withdrawal request\n     */\n    function executeReserveWithdrawal(uint256 _requestID)\n        external\n        payable\n        onlyFamily\n    {\n        // requiring that the family members have approved the sender to withdraw from the reserves\n        require(\n            requestIDToApprovals[_requestID] >= requiredApprovals,\n            \"More approvals are required before you can withdraw.\"\n        );\n\n        // only the person who made the request can call this\n        require(\n            requestIDToRequester[_requestID] == msg.sender,\n            \"Access denied.\"\n        );\n\n        // initialising how much to withdraw from the reserves\n        uint256 withdrawalAmount = requestIDToAmount[_requestID];\n\n        // updating the state variable of the reserves\n        reserveETH -= withdrawalAmount;\n\n        // withdrawing the reserves and sending it to the caller\n        payable(msg.sender).transfer(withdrawalAmount);\n\n        // emitting event\n        emit ReservesWithdrawalMade(msg.sender, withdrawalAmount);\n    }\n}\n",
  "sourcePath": "contracts/goerli-eth-contracts/EthSavings.sol",
  "type": "contract"
}